{
  "contractName": "GanFaceFactory",
  "abi": [
    {
      "anonymous": false,
      "inputs": [
        {
          "indexed": true,
          "internalType": "address",
          "name": "owner",
          "type": "address"
        },
        {
          "indexed": true,
          "internalType": "address",
          "name": "nft",
          "type": "address"
        },
        {
          "indexed": true,
          "internalType": "uint256",
          "name": "tokenId",
          "type": "uint256"
        },
        {
          "indexed": false,
          "internalType": "string",
          "name": "tokenURI",
          "type": "string"
        }
      ],
      "name": "NewFace",
      "type": "event"
    },
    {
      "inputs": [
        {
          "internalType": "address",
          "name": "_owner",
          "type": "address"
        },
        {
          "internalType": "string",
          "name": "_tokenURI",
          "type": "string"
        }
      ],
      "name": "newFace",
      "outputs": [
        {
          "internalType": "address",
          "name": "",
          "type": "address"
        }
      ],
      "stateMutability": "nonpayable",
      "type": "function"
    }
  ],
  "bytecode": "0x608060405234801561001057600080fd5b50613414806100206000396000f3fe608060405234801561001057600080fd5b506004361061002b5760003560e01c80639e933ce814610030575b600080fd5b6100c76004803603604081101561004657600080fd5b81019080803573ffffffffffffffffffffffffffffffffffffffff1690602001909291908035906020019064010000000081111561008357600080fd5b82018360208201111561009557600080fd5b803590602001918460018302840111640100000000831117156100b757600080fd5b90919293919293905050506100f3565b604051808273ffffffffffffffffffffffffffffffffffffffff16815260200191505060405180910390f35b60008084848460405161010590610214565b808473ffffffffffffffffffffffffffffffffffffffff168152602001806020018281038252848482818152602001925080828437600081840152601f19601f820116905080830192505050945050505050604051809103906000f080158015610173573d6000803e3d6000fd5b50905060018173ffffffffffffffffffffffffffffffffffffffff168673ffffffffffffffffffffffffffffffffffffffff167f7216b02c979bd15ca7376ebf6ac13b2cd28b671fb470be2d997fc3baf23eaeec878760405180806020018281038252848482818152602001925080828437600081840152601f19601f820116905080830192505050935050505060405180910390a4809150509392505050565b6131bd806102228339019056fe60806040523480156200001157600080fd5b50604051620031bd380380620031bd833981810160405260408110156200003757600080fd5b8101908080519060200190929190805160405193929190846401000000008211156200006257600080fd5b838201915060208201858111156200007957600080fd5b82518660018202830111640100000000821117156200009757600080fd5b8083526020830192505050908051906020019080838360005b83811015620000cd578082015181840152602081019050620000b0565b50505050905090810190601f168015620000fb5780820380516001836020036101000a031916815260200191505b506040525050506040518060400160405280600781526020017f47414e46414345000000000000000000000000000000000000000000000000008152506040518060400160405280600281526020017f4746000000000000000000000000000000000000000000000000000000000000815250620001866301ffc9a760e01b6200022560201b60201c565b81600690805190602001906200019e92919062000972565b508060079080519060200190620001b792919062000972565b50620001d06380ac58cd60e01b6200022560201b60201c565b620001e8635b5e139f60e01b6200022560201b60201c565b6200020063780e9d6360e01b6200022560201b60201c565b50506001600a819055506200021c82826200032e60201b60201c565b50505062000a18565b63ffffffff60e01b817bffffffffffffffffffffffffffffffffffffffffffffffffffffffff19161415620002c2576040517f08c379a000000000000000000000000000000000000000000000000000000000815260040180806020018281038252601c8152602001807f4552433136353a20696e76616c696420696e746572666163652069640000000081525060200191505060405180910390fd5b6001600080837bffffffffffffffffffffffffffffffffffffffffffffffffffffffff19167bffffffffffffffffffffffffffffffffffffffffffffffffffffffff1916815260200190815260200160002060006101000a81548160ff02191690831515021790555050565b60006002600a541415620003aa576040517f08c379a000000000000000000000000000000000000000000000000000000000815260040180806020018281038252601f8152602001807f5265656e7472616e637947756172643a207265656e7472616e742063616c6c0081525060200191505060405180910390fd5b6002600a81905550620003c9600b6200045b60201b620014d31760201c565b6000620003e2600b6200047160201b620014e91760201c565b9050620003f684826200047f60201b60201c565b6200040881846200069360201b60201c565b83600c60006101000a81548173ffffffffffffffffffffffffffffffffffffffff021916908373ffffffffffffffffffffffffffffffffffffffff160217905550809150506001600a8190555092915050565b6001816000016000828254019250508190555050565b600081600001549050919050565b600073ffffffffffffffffffffffffffffffffffffffff168273ffffffffffffffffffffffffffffffffffffffff16141562000523576040517f08c379a00000000000000000000000000000000000000000000000000000000081526004018080602001828103825260208152602001807f4552433732313a206d696e7420746f20746865207a65726f206164647265737381525060200191505060405180910390fd5b62000534816200072960201b60201c565b15620005a8576040517f08c379a000000000000000000000000000000000000000000000000000000000815260040180806020018281038252601c8152602001807f4552433732313a20746f6b656e20616c7265616479206d696e7465640000000081525060200191505060405180910390fd5b620005bc600083836200074d60201b60201c565b6200061481600160008573ffffffffffffffffffffffffffffffffffffffff1673ffffffffffffffffffffffffffffffffffffffff1681526020019081526020016000206200075260201b620014f71790919060201c565b5062000632818360026200077460201b62001511179092919060201c565b50808273ffffffffffffffffffffffffffffffffffffffff16600073ffffffffffffffffffffffffffffffffffffffff167fddf252ad1be2c89b69c2b068fc378daa952ba7f163c4a11628f55a4df523b3ef60405160405180910390a45050565b620006a4826200072960201b60201c565b620006fb576040517f08c379a000000000000000000000000000000000000000000000000000000000815260040180806020018281038252602c81526020018062003191602c913960400191505060405180910390fd5b806008600084815260200190815260200160002090805190602001906200072492919062000972565b505050565b600062000746826002620007b160201b620015461790919060201c565b9050919050565b505050565b60006200076c836000018360001b620007d360201b60201c565b905092915050565b6000620007a8846000018460001b8473ffffffffffffffffffffffffffffffffffffffff1660001b6200084d60201b60201c565b90509392505050565b6000620007cb836000018360001b6200092c60201b60201c565b905092915050565b6000620007e783836200094f60201b60201c565b6200084257826000018290806001815401808255809150506001900390600052602060002001600090919091909150558260000180549050836001016000848152602001908152602001600020819055506001905062000847565b600090505b92915050565b6000808460010160008581526020019081526020016000205490506000811415620008f65784600001604051806040016040528086815260200185815250908060018154018082558091505060019003906000526020600020906002020160009091909190915060008201518160000155602082015181600101555050846000018054905085600101600086815260200190815260200160002081905550600191505062000925565b828560000160018303815481106200090a57fe5b90600052602060002090600202016001018190555060009150505b9392505050565b600080836001016000848152602001908152602001600020541415905092915050565b600080836001016000848152602001908152602001600020541415905092915050565b828054600181600116156101000203166002900490600052602060002090601f016020900481019282601f10620009b557805160ff1916838001178555620009e6565b82800160010185558215620009e6579182015b82811115620009e5578251825591602001919060010190620009c8565b5b509050620009f59190620009f9565b5090565b5b8082111562000a14576000816000905550600101620009fa565b5090565b6127698062000a286000396000f3fe608060405234801561001057600080fd5b50600436106101165760003560e01c80636352211e116100a2578063a22cb46511610071578063a22cb465146105fb578063b387ef921461064b578063b88d4fde1461067f578063c87b56dd14610784578063e985e9c51461082b57610116565b80636352211e146104455780636c0360eb1461049d57806370a082311461052057806395d89b411461057857610116565b806318160ddd116100e957806318160ddd146102a757806323b872dd146102c55780632f745c591461033357806342842e0e146103955780634f6ccce71461040357610116565b806301ffc9a71461011b57806306fdde031461017e578063081812fc14610201578063095ea7b314610259575b600080fd5b6101666004803603602081101561013157600080fd5b8101908080357bffffffffffffffffffffffffffffffffffffffffffffffffffffffff191690602001909291905050506108a5565b60405180821515815260200191505060405180910390f35b61018661090c565b6040518080602001828103825283818151815260200191508051906020019080838360005b838110156101c65780820151818401526020810190506101ab565b50505050905090810190601f1680156101f35780820380516001836020036101000a031916815260200191505b509250505060405180910390f35b61022d6004803603602081101561021757600080fd5b81019080803590602001909291905050506109ae565b604051808273ffffffffffffffffffffffffffffffffffffffff16815260200191505060405180910390f35b6102a56004803603604081101561026f57600080fd5b81019080803573ffffffffffffffffffffffffffffffffffffffff16906020019092919080359060200190929190505050610a49565b005b6102af610b8d565b6040518082815260200191505060405180910390f35b610331600480360360608110156102db57600080fd5b81019080803573ffffffffffffffffffffffffffffffffffffffff169060200190929190803573ffffffffffffffffffffffffffffffffffffffff16906020019092919080359060200190929190505050610b9e565b005b61037f6004803603604081101561034957600080fd5b81019080803573ffffffffffffffffffffffffffffffffffffffff16906020019092919080359060200190929190505050610c14565b6040518082815260200191505060405180910390f35b610401600480360360608110156103ab57600080fd5b81019080803573ffffffffffffffffffffffffffffffffffffffff169060200190929190803573ffffffffffffffffffffffffffffffffffffffff16906020019092919080359060200190929190505050610c6f565b005b61042f6004803603602081101561041957600080fd5b8101908080359060200190929190505050610c8f565b6040518082815260200191505060405180910390f35b6104716004803603602081101561045b57600080fd5b8101908080359060200190929190505050610cb2565b604051808273ffffffffffffffffffffffffffffffffffffffff16815260200191505060405180910390f35b6104a5610ce9565b6040518080602001828103825283818151815260200191508051906020019080838360005b838110156104e55780820151818401526020810190506104ca565b50505050905090810190601f1680156105125780820380516001836020036101000a031916815260200191505b509250505060405180910390f35b6105626004803603602081101561053657600080fd5b81019080803573ffffffffffffffffffffffffffffffffffffffff169060200190929190505050610d8b565b6040518082815260200191505060405180910390f35b610580610e60565b6040518080602001828103825283818151815260200191508051906020019080838360005b838110156105c05780820151818401526020810190506105a5565b50505050905090810190601f1680156105ed5780820380516001836020036101000a031916815260200191505b509250505060405180910390f35b6106496004803603604081101561061157600080fd5b81019080803573ffffffffffffffffffffffffffffffffffffffff169060200190929190803515159060200190929190505050610f02565b005b6106536110b8565b604051808273ffffffffffffffffffffffffffffffffffffffff16815260200191505060405180910390f35b6107826004803603608081101561069557600080fd5b81019080803573ffffffffffffffffffffffffffffffffffffffff169060200190929190803573ffffffffffffffffffffffffffffffffffffffff16906020019092919080359060200190929190803590602001906401000000008111156106fc57600080fd5b82018360208201111561070e57600080fd5b8035906020019184600183028401116401000000008311171561073057600080fd5b91908080601f016020809104026020016040519081016040528093929190818152602001838380828437600081840152601f19601f8201169050808301925050505050505091929192905050506110de565b005b6107b06004803603602081101561079a57600080fd5b8101908080359060200190929190505050611156565b6040518080602001828103825283818151815260200191508051906020019080838360005b838110156107f05780820151818401526020810190506107d5565b50505050905090810190601f16801561081d5780820380516001836020036101000a031916815260200191505b509250505060405180910390f35b61088d6004803603604081101561084157600080fd5b81019080803573ffffffffffffffffffffffffffffffffffffffff169060200190929190803573ffffffffffffffffffffffffffffffffffffffff16906020019092919050505061143f565b60405180821515815260200191505060405180910390f35b6000806000837bffffffffffffffffffffffffffffffffffffffffffffffffffffffff19167bffffffffffffffffffffffffffffffffffffffffffffffffffffffff1916815260200190815260200160002060009054906101000a900460ff169050919050565b606060068054600181600116156101000203166002900480601f0160208091040260200160405190810160405280929190818152602001828054600181600116156101000203166002900480156109a45780601f10610979576101008083540402835291602001916109a4565b820191906000526020600020905b81548152906001019060200180831161098757829003601f168201915b5050505050905090565b60006109b982611560565b610a0e576040517f08c379a000000000000000000000000000000000000000000000000000000000815260040180806020018281038252602c81526020018061265e602c913960400191505060405180910390fd5b6004600083815260200190815260200160002060009054906101000a900473ffffffffffffffffffffffffffffffffffffffff169050919050565b6000610a5482610cb2565b90508073ffffffffffffffffffffffffffffffffffffffff168373ffffffffffffffffffffffffffffffffffffffff161415610adb576040517f08c379a00000000000000000000000000000000000000000000000000000000081526004018080602001828103825260218152602001806126e26021913960400191505060405180910390fd5b8073ffffffffffffffffffffffffffffffffffffffff16610afa61157d565b73ffffffffffffffffffffffffffffffffffffffff161480610b295750610b2881610b2361157d565b61143f565b5b610b7e576040517f08c379a00000000000000000000000000000000000000000000000000000000081526004018080602001828103825260388152602001806125b16038913960400191505060405180910390fd5b610b888383611585565b505050565b6000610b99600261163e565b905090565b610baf610ba961157d565b82611653565b610c04576040517f08c379a00000000000000000000000000000000000000000000000000000000081526004018080602001828103825260318152602001806127036031913960400191505060405180910390fd5b610c0f838383611747565b505050565b6000610c6782600160008673ffffffffffffffffffffffffffffffffffffffff1673ffffffffffffffffffffffffffffffffffffffff16815260200190815260200160002061198a90919063ffffffff16565b905092915050565b610c8a838383604051806020016040528060008152506110de565b505050565b600080610ca68360026119a490919063ffffffff16565b50905080915050919050565b6000610ce2826040518060600160405280602981526020016126136029913960026119d09092919063ffffffff16565b9050919050565b606060098054600181600116156101000203166002900480601f016020809104026020016040519081016040528092919081815260200182805460018160011615610100020316600290048015610d815780601f10610d5657610100808354040283529160200191610d81565b820191906000526020600020905b815481529060010190602001808311610d6457829003601f168201915b5050505050905090565b60008073ffffffffffffffffffffffffffffffffffffffff168273ffffffffffffffffffffffffffffffffffffffff161415610e12576040517f08c379a000000000000000000000000000000000000000000000000000000000815260040180806020018281038252602a8152602001806125e9602a913960400191505060405180910390fd5b610e59600160008473ffffffffffffffffffffffffffffffffffffffff1673ffffffffffffffffffffffffffffffffffffffff1681526020019081526020016000206119ef565b9050919050565b606060078054600181600116156101000203166002900480601f016020809104026020016040519081016040528092919081815260200182805460018160011615610100020316600290048015610ef85780601f10610ecd57610100808354040283529160200191610ef8565b820191906000526020600020905b815481529060010190602001808311610edb57829003601f168201915b5050505050905090565b610f0a61157d565b73ffffffffffffffffffffffffffffffffffffffff168273ffffffffffffffffffffffffffffffffffffffff161415610fab576040517f08c379a00000000000000000000000000000000000000000000000000000000081526004018080602001828103825260198152602001807f4552433732313a20617070726f766520746f2063616c6c65720000000000000081525060200191505060405180910390fd5b8060056000610fb861157d565b73ffffffffffffffffffffffffffffffffffffffff1673ffffffffffffffffffffffffffffffffffffffff16815260200190815260200160002060008473ffffffffffffffffffffffffffffffffffffffff1673ffffffffffffffffffffffffffffffffffffffff16815260200190815260200160002060006101000a81548160ff0219169083151502179055508173ffffffffffffffffffffffffffffffffffffffff1661106561157d565b73ffffffffffffffffffffffffffffffffffffffff167f17307eab39ab6107e8899845ad3d59bd9653f200f220920489ca2b5937696c318360405180821515815260200191505060405180910390a35050565b600c60009054906101000a900473ffffffffffffffffffffffffffffffffffffffff1681565b6110ef6110e961157d565b83611653565b611144576040517f08c379a00000000000000000000000000000000000000000000000000000000081526004018080602001828103825260318152602001806127036031913960400191505060405180910390fd5b61115084848484611a04565b50505050565b606061116182611560565b6111b6576040517f08c379a000000000000000000000000000000000000000000000000000000000815260040180806020018281038252602f8152602001806126b3602f913960400191505060405180910390fd5b6060600860008481526020019081526020016000208054600181600116156101000203166002900480601f01602080910402602001604051908101604052809291908181526020018280546001816001161561010002031660029004801561125f5780601f106112345761010080835404028352916020019161125f565b820191906000526020600020905b81548152906001019060200180831161124257829003601f168201915b5050505050905060006009805460018160011615610100020316600290049050141561128e578091505061143a565b6000815111156113675760098160405160200180838054600181600116156101000203166002900480156112f95780601f106112d75761010080835404028352918201916112f9565b820191906000526020600020905b8154815290600101906020018083116112e5575b505082805190602001908083835b6020831061132a5780518252602082019150602081019050602083039250611307565b6001836020036101000a0380198251168184511680821785525050505050509050019250505060405160208183030381529060405291505061143a565b600961137284611a76565b60405160200180838054600181600116156101000203166002900480156113d05780601f106113ae5761010080835404028352918201916113d0565b820191906000526020600020905b8154815290600101906020018083116113bc575b505082805190602001908083835b6020831061140157805182526020820191506020810190506020830392506113de565b6001836020036101000a038019825116818451168082178552505050505050905001925050506040516020818303038152906040529150505b919050565b6000600560008473ffffffffffffffffffffffffffffffffffffffff1673ffffffffffffffffffffffffffffffffffffffff16815260200190815260200160002060008373ffffffffffffffffffffffffffffffffffffffff1673ffffffffffffffffffffffffffffffffffffffff16815260200190815260200160002060009054906101000a900460ff16905092915050565b6001816000016000828254019250508190555050565b600081600001549050919050565b6000611509836000018360001b611bbd565b905092915050565b600061153d846000018460001b8473ffffffffffffffffffffffffffffffffffffffff1660001b611c2d565b90509392505050565b6000611558836000018360001b611d09565b905092915050565b600061157682600261154690919063ffffffff16565b9050919050565b600033905090565b816004600083815260200190815260200160002060006101000a81548173ffffffffffffffffffffffffffffffffffffffff021916908373ffffffffffffffffffffffffffffffffffffffff160217905550808273ffffffffffffffffffffffffffffffffffffffff166115f883610cb2565b73ffffffffffffffffffffffffffffffffffffffff167f8c5be1e5ebec7d5bd14f71427d1e84f3dd0314c0f7b2291e5b200ac8c7c3b92560405160405180910390a45050565b600061164c82600001611d2c565b9050919050565b600061165e82611560565b6116b3576040517f08c379a000000000000000000000000000000000000000000000000000000000815260040180806020018281038252602c815260200180612585602c913960400191505060405180910390fd5b60006116be83610cb2565b90508073ffffffffffffffffffffffffffffffffffffffff168473ffffffffffffffffffffffffffffffffffffffff16148061172d57508373ffffffffffffffffffffffffffffffffffffffff16611715846109ae565b73ffffffffffffffffffffffffffffffffffffffff16145b8061173e575061173d818561143f565b5b91505092915050565b8273ffffffffffffffffffffffffffffffffffffffff1661176782610cb2565b73ffffffffffffffffffffffffffffffffffffffff16146117d3576040517f08c379a000000000000000000000000000000000000000000000000000000000815260040180806020018281038252602981526020018061268a6029913960400191505060405180910390fd5b600073ffffffffffffffffffffffffffffffffffffffff168273ffffffffffffffffffffffffffffffffffffffff161415611859576040517f08c379a00000000000000000000000000000000000000000000000000000000081526004018080602001828103825260248152602001806125616024913960400191505060405180910390fd5b611864838383611d3d565b61186f600082611585565b6118c081600160008673ffffffffffffffffffffffffffffffffffffffff1673ffffffffffffffffffffffffffffffffffffffff168152602001908152602001600020611d4290919063ffffffff16565b5061191281600160008573ffffffffffffffffffffffffffffffffffffffff1673ffffffffffffffffffffffffffffffffffffffff1681526020019081526020016000206114f790919063ffffffff16565b50611929818360026115119092919063ffffffff16565b50808273ffffffffffffffffffffffffffffffffffffffff168473ffffffffffffffffffffffffffffffffffffffff167fddf252ad1be2c89b69c2b068fc378daa952ba7f163c4a11628f55a4df523b3ef60405160405180910390a4505050565b60006119998360000183611d5c565b60001c905092915050565b6000806000806119b78660000186611ddf565b915091508160001c8160001c9350935050509250929050565b60006119e3846000018460001b84611e78565b60001c90509392505050565b60006119fd82600001611f6e565b9050919050565b611a0f848484611747565b611a1b84848484611f7f565b611a70576040517f08c379a000000000000000000000000000000000000000000000000000000000815260040180806020018281038252603281526020018061252f6032913960400191505060405180910390fd5b50505050565b60606000821415611abe576040518060400160405280600181526020017f30000000000000000000000000000000000000000000000000000000000000008152509050611bb8565b600082905060005b60008214611ae8578080600101915050600a8281611ae057fe5b049150611ac6565b60608167ffffffffffffffff81118015611b0157600080fd5b506040519080825280601f01601f191660200182016040528015611b345781602001600182028036833780820191505090505b50905060006001830390508593505b60008414611bb057600a8481611b5557fe5b0660300160f81b82828060019003935081518110611b6f57fe5b60200101907effffffffffffffffffffffffffffffffffffffffffffffffffffffffffffff1916908160001a905350600a8481611ba857fe5b049350611b43565b819450505050505b919050565b6000611bc98383612198565b611c22578260000182908060018154018082558091505060019003906000526020600020016000909190919091505582600001805490508360010160008481526020019081526020016000208190555060019050611c27565b600090505b92915050565b6000808460010160008581526020019081526020016000205490506000811415611cd457846000016040518060400160405280868152602001858152509080600181540180825580915050600190039060005260206000209060020201600090919091909150600082015181600001556020820151816001015550508460000180549050856001016000868152602001908152602001600020819055506001915050611d02565b82856000016001830381548110611ce757fe5b90600052602060002090600202016001018190555060009150505b9392505050565b600080836001016000848152602001908152602001600020541415905092915050565b600081600001805490509050919050565b505050565b6000611d54836000018360001b6121bb565b905092915050565b600081836000018054905011611dbd576040517f08c379a000000000000000000000000000000000000000000000000000000000815260040180806020018281038252602281526020018061250d6022913960400191505060405180910390fd5b826000018281548110611dcc57fe5b9060005260206000200154905092915050565b60008082846000018054905011611e41576040517f08c379a000000000000000000000000000000000000000000000000000000000815260040180806020018281038252602281526020018061263c6022913960400191505060405180910390fd5b6000846000018481548110611e5257fe5b906000526020600020906002020190508060000154816001015492509250509250929050565b60008084600101600085815260200190815260200160002054905060008114158390611f3f576040517f08c379a00000000000000000000000000000000000000000000000000000000081526004018080602001828103825283818151815260200191508051906020019080838360005b83811015611f04578082015181840152602081019050611ee9565b50505050905090810190601f168015611f315780820380516001836020036101000a031916815260200191505b509250505060405180910390fd5b50846000016001820381548110611f5257fe5b9060005260206000209060020201600101549150509392505050565b600081600001805490509050919050565b6000611fa08473ffffffffffffffffffffffffffffffffffffffff166122a3565b611fad5760019050612190565b606061211763150b7a0260e01b611fc261157d565b888787604051602401808573ffffffffffffffffffffffffffffffffffffffff1681526020018473ffffffffffffffffffffffffffffffffffffffff16815260200183815260200180602001828103825283818151815260200191508051906020019080838360005b8381101561204657808201518184015260208101905061202b565b50505050905090810190601f1680156120735780820380516001836020036101000a031916815260200191505b5095505050505050604051602081830303815290604052907bffffffffffffffffffffffffffffffffffffffffffffffffffffffff19166020820180517bffffffffffffffffffffffffffffffffffffffffffffffffffffffff838183161783525050505060405180606001604052806032815260200161252f603291398773ffffffffffffffffffffffffffffffffffffffff166122ee9092919063ffffffff16565b9050600081806020019051602081101561213057600080fd5b8101908080519060200190929190505050905063150b7a0260e01b7bffffffffffffffffffffffffffffffffffffffffffffffffffffffff1916817bffffffffffffffffffffffffffffffffffffffffffffffffffffffff191614925050505b949350505050565b600080836001016000848152602001908152602001600020541415905092915050565b60008083600101600084815260200190815260200160002054905060008114612297576000600182039050600060018660000180549050039050600086600001828154811061220657fe5b906000526020600020015490508087600001848154811061222357fe5b906000526020600020018190555060018301876001016000838152602001908152602001600020819055508660000180548061225b57fe5b6001900381819060005260206000200160009055905586600101600087815260200190815260200160002060009055600194505050505061229d565b60009150505b92915050565b60008060007fc5d2460186f7233c927e7db2dcc703c0e500b653ca82273b7bfad8045d85a47060001b9050833f91508082141580156122e557506000801b8214155b92505050919050565b60606122fd8484600085612306565b90509392505050565b6060612311856122a3565b612383576040517f08c379a000000000000000000000000000000000000000000000000000000000815260040180806020018281038252601d8152602001807f416464726573733a2063616c6c20746f206e6f6e2d636f6e747261637400000081525060200191505060405180910390fd5b600060608673ffffffffffffffffffffffffffffffffffffffff1685876040518082805190602001908083835b602083106123d357805182526020820191506020810190506020830392506123b0565b6001836020036101000a03801982511681845116808217855250505050505090500191505060006040518083038185875af1925050503d8060008114612435576040519150601f19603f3d011682016040523d82523d6000602084013e61243a565b606091505b5091509150811561244f578092505050612504565b6000815111156124625780518082602001fd5b836040517f08c379a00000000000000000000000000000000000000000000000000000000081526004018080602001828103825283818151815260200191508051906020019080838360005b838110156124c95780820151818401526020810190506124ae565b50505050905090810190601f1680156124f65780820380516001836020036101000a031916815260200191505b509250505060405180910390fd5b94935050505056fe456e756d657261626c655365743a20696e646578206f7574206f6620626f756e64734552433732313a207472616e7366657220746f206e6f6e20455243373231526563656976657220696d706c656d656e7465724552433732313a207472616e7366657220746f20746865207a65726f20616464726573734552433732313a206f70657261746f7220717565727920666f72206e6f6e6578697374656e7420746f6b656e4552433732313a20617070726f76652063616c6c6572206973206e6f74206f776e6572206e6f7220617070726f76656420666f7220616c6c4552433732313a2062616c616e636520717565727920666f7220746865207a65726f20616464726573734552433732313a206f776e657220717565727920666f72206e6f6e6578697374656e7420746f6b656e456e756d657261626c654d61703a20696e646578206f7574206f6620626f756e64734552433732313a20617070726f76656420717565727920666f72206e6f6e6578697374656e7420746f6b656e4552433732313a207472616e73666572206f6620746f6b656e2074686174206973206e6f74206f776e4552433732314d657461646174613a2055524920717565727920666f72206e6f6e6578697374656e7420746f6b656e4552433732313a20617070726f76616c20746f2063757272656e74206f776e65724552433732313a207472616e736665722063616c6c6572206973206e6f74206f776e6572206e6f7220617070726f766564a2646970667358221220e0ad02a075ec0e31d46f33ba51158e699cb56324e96b8690f93361f4d93dff5664736f6c634300070100334552433732314d657461646174613a2055524920736574206f66206e6f6e6578697374656e7420746f6b656ea2646970667358221220558c105784b95653224213d4aad1fe5ee61348a78f668877d813a76ad2e791d064736f6c63430007010033",
  "immutableReferences": {},
  "source": "// SPDX-License-Identifier: MIT\npragma solidity ^0.7.0;\n\nimport {\n  ISuperfluid,\n  ISuperToken,\n  ISuperApp,\n  SuperAppDefinitions,\n  ISuperAgreement\n} from \"@superfluid-finance/ethereum-contracts/contracts/interfaces/superfluid/ISuperfluid.sol\";\nimport {\n  IConstantFlowAgreementV1\n} from \"@superfluid-finance/ethereum-contracts/contracts/interfaces/agreements/IConstantFlowAgreementV1.sol\";\nimport \"./GanFaceNft.sol\";\n\ncontract GanFaceFactory {\n  event NewFace(\n    address indexed owner,\n    address indexed nft,\n    uint256 indexed tokenId,\n    string tokenURI\n  );\n\n  function newFace(address _owner, string calldata _tokenURI)\n    public\n    returns (address)\n  {\n    GanFaceNft gan = new GanFaceNft(_owner, _tokenURI);\n    emit NewFace(_owner, address(gan), 1, _tokenURI);\n    return address(gan);\n  }\n}\n",
  "sourcePath": "/Users/shredder/git/superfluid/contracts/contracts/StreamableNFT/GanFaceFactory.sol",
  "compiler": {
    "name": "solc",
    "version": "0.7.1+commit.f4a555be.Emscripten.clang"
  },
  "schemaVersion": "3.3.2",
  "updatedAt": "2020-11-13T14:30:10.301Z",
  "networkType": "ethereum",
  "devdoc": {
    "kind": "dev",
    "methods": {},
    "version": 1
  },
  "userdoc": {
    "kind": "user",
    "methods": {},
    "version": 1
  }
}