{
  "contractName": "RentNft",
  "abi": [
    {
      "inputs": [
        {
          "internalType": "address",
          "name": "_resolver",
          "type": "address"
        }
      ],
      "stateMutability": "nonpayable",
      "type": "constructor"
    },
    {
      "anonymous": false,
      "inputs": [
        {
          "indexed": true,
          "internalType": "address",
          "name": "nftAddress",
          "type": "address"
        },
        {
          "indexed": true,
          "internalType": "uint256",
          "name": "tokenId",
          "type": "uint256"
        },
        {
          "indexed": true,
          "internalType": "address",
          "name": "borrower",
          "type": "address"
        },
        {
          "indexed": false,
          "internalType": "address",
          "name": "lender",
          "type": "address"
        },
        {
          "indexed": false,
          "internalType": "uint256",
          "name": "borrowedAt",
          "type": "uint256"
        },
        {
          "indexed": false,
          "internalType": "uint256",
          "name": "borrowPrice",
          "type": "uint256"
        },
        {
          "indexed": false,
          "internalType": "uint256",
          "name": "actualDuration",
          "type": "uint256"
        },
        {
          "indexed": false,
          "internalType": "uint256",
          "name": "nftPrice",
          "type": "uint256"
        }
      ],
      "name": "Borrowed",
      "type": "event"
    },
    {
      "anonymous": false,
      "inputs": [
        {
          "indexed": true,
          "internalType": "address",
          "name": "nftAddress",
          "type": "address"
        },
        {
          "indexed": true,
          "internalType": "uint256",
          "name": "tokenId",
          "type": "uint256"
        },
        {
          "indexed": true,
          "internalType": "address",
          "name": "lender",
          "type": "address"
        },
        {
          "indexed": false,
          "internalType": "uint256",
          "name": "maxDuration",
          "type": "uint256"
        },
        {
          "indexed": false,
          "internalType": "uint256",
          "name": "borrowPrice",
          "type": "uint256"
        },
        {
          "indexed": false,
          "internalType": "uint256",
          "name": "nftPrice",
          "type": "uint256"
        }
      ],
      "name": "Lent",
      "type": "event"
    },
    {
      "anonymous": false,
      "inputs": [
        {
          "indexed": true,
          "internalType": "address",
          "name": "previousOwner",
          "type": "address"
        },
        {
          "indexed": true,
          "internalType": "address",
          "name": "newOwner",
          "type": "address"
        }
      ],
      "name": "OwnershipTransferred",
      "type": "event"
    },
    {
      "anonymous": false,
      "inputs": [
        {
          "indexed": true,
          "internalType": "address",
          "name": "nftAddress",
          "type": "address"
        },
        {
          "indexed": true,
          "internalType": "uint256",
          "name": "tokenId",
          "type": "uint256"
        },
        {
          "indexed": true,
          "internalType": "address",
          "name": "borrower",
          "type": "address"
        },
        {
          "indexed": false,
          "internalType": "address",
          "name": "lender",
          "type": "address"
        }
      ],
      "name": "Returned",
      "type": "event"
    },
    {
      "inputs": [
        {
          "internalType": "address",
          "name": "",
          "type": "address"
        },
        {
          "internalType": "uint256",
          "name": "",
          "type": "uint256"
        }
      ],
      "name": "nfts",
      "outputs": [
        {
          "internalType": "address",
          "name": "lender",
          "type": "address"
        },
        {
          "internalType": "address",
          "name": "borrower",
          "type": "address"
        },
        {
          "internalType": "uint256",
          "name": "maxDuration",
          "type": "uint256"
        },
        {
          "internalType": "uint256",
          "name": "actualDuration",
          "type": "uint256"
        },
        {
          "internalType": "uint256",
          "name": "borrowPrice",
          "type": "uint256"
        },
        {
          "internalType": "uint256",
          "name": "borrowedAt",
          "type": "uint256"
        },
        {
          "internalType": "uint256",
          "name": "nftPrice",
          "type": "uint256"
        }
      ],
      "stateMutability": "view",
      "type": "function"
    },
    {
      "inputs": [],
      "name": "owner",
      "outputs": [
        {
          "internalType": "address",
          "name": "",
          "type": "address"
        }
      ],
      "stateMutability": "view",
      "type": "function"
    },
    {
      "inputs": [],
      "name": "renounceOwnership",
      "outputs": [],
      "stateMutability": "nonpayable",
      "type": "function"
    },
    {
      "inputs": [],
      "name": "resolver",
      "outputs": [
        {
          "internalType": "contract RentNftAddressProvider",
          "name": "",
          "type": "address"
        }
      ],
      "stateMutability": "view",
      "type": "function"
    },
    {
      "inputs": [
        {
          "internalType": "address",
          "name": "newOwner",
          "type": "address"
        }
      ],
      "name": "transferOwnership",
      "outputs": [],
      "stateMutability": "nonpayable",
      "type": "function"
    },
    {
      "inputs": [
        {
          "internalType": "address",
          "name": "",
          "type": "address"
        },
        {
          "internalType": "address",
          "name": "",
          "type": "address"
        },
        {
          "internalType": "uint256",
          "name": "",
          "type": "uint256"
        },
        {
          "internalType": "bytes",
          "name": "",
          "type": "bytes"
        }
      ],
      "name": "onERC721Received",
      "outputs": [
        {
          "internalType": "bytes4",
          "name": "",
          "type": "bytes4"
        }
      ],
      "stateMutability": "nonpayable",
      "type": "function"
    },
    {
      "inputs": [
        {
          "internalType": "address",
          "name": "_nftAddress",
          "type": "address"
        },
        {
          "internalType": "uint256",
          "name": "_tokenId",
          "type": "uint256"
        },
        {
          "internalType": "uint256",
          "name": "_maxDuration",
          "type": "uint256"
        },
        {
          "internalType": "uint256",
          "name": "_borrowPrice",
          "type": "uint256"
        },
        {
          "internalType": "uint256",
          "name": "_nftPrice",
          "type": "uint256"
        },
        {
          "internalType": "address",
          "name": "_cashflowAddress",
          "type": "address"
        }
      ],
      "name": "lendOne",
      "outputs": [],
      "stateMutability": "nonpayable",
      "type": "function"
    },
    {
      "inputs": [
        {
          "internalType": "address",
          "name": "_borrower",
          "type": "address"
        },
        {
          "internalType": "address",
          "name": "_nftAddress",
          "type": "address"
        },
        {
          "internalType": "uint256",
          "name": "_tokenId",
          "type": "uint256"
        },
        {
          "internalType": "uint256",
          "name": "_actualDuration",
          "type": "uint256"
        },
        {
          "internalType": "bytes",
          "name": "_token",
          "type": "bytes"
        }
      ],
      "name": "rentOne",
      "outputs": [],
      "stateMutability": "nonpayable",
      "type": "function"
    },
    {
      "inputs": [
        {
          "internalType": "address",
          "name": "_nftAddress",
          "type": "address"
        },
        {
          "internalType": "uint256",
          "name": "_tokenId",
          "type": "uint256"
        },
        {
          "internalType": "bytes",
          "name": "_token",
          "type": "bytes"
        }
      ],
      "name": "returnNftOne",
      "outputs": [],
      "stateMutability": "nonpayable",
      "type": "function"
    },
    {
      "inputs": [
        {
          "internalType": "address",
          "name": "_nftAddress",
          "type": "address"
        },
        {
          "internalType": "uint256",
          "name": "_tokenId",
          "type": "uint256"
        }
      ],
      "name": "stopLending",
      "outputs": [],
      "stateMutability": "nonpayable",
      "type": "function"
    },
    {
      "inputs": [
        {
          "internalType": "address",
          "name": "_nftAddress",
          "type": "address"
        },
        {
          "internalType": "uint256",
          "name": "_tokenId",
          "type": "uint256"
        },
        {
          "internalType": "bytes",
          "name": "_token",
          "type": "bytes"
        }
      ],
      "name": "claimCollateral",
      "outputs": [],
      "stateMutability": "nonpayable",
      "type": "function"
    },
    {
      "inputs": [
        {
          "internalType": "address",
          "name": "nft",
          "type": "address"
        }
      ],
      "name": "getNumCashflows",
      "outputs": [
        {
          "internalType": "uint256",
          "name": "",
          "type": "uint256"
        }
      ],
      "stateMutability": "view",
      "type": "function"
    },
    {
      "inputs": [
        {
          "internalType": "address",
          "name": "nft",
          "type": "address"
        }
      ],
      "name": "getLastCashflow",
      "outputs": [
        {
          "internalType": "address",
          "name": "",
          "type": "address"
        }
      ],
      "stateMutability": "view",
      "type": "function"
    }
  ],
  "bytecode": "0x608060405234801561001057600080fd5b5060405162002c5438038062002c548339818101604052602081101561003557600080fd5b81019080805190602001909291905050506001600081905550600061005e61014460201b60201c565b905080600160006101000a81548173ffffffffffffffffffffffffffffffffffffffff021916908373ffffffffffffffffffffffffffffffffffffffff1602179055508073ffffffffffffffffffffffffffffffffffffffff16600073ffffffffffffffffffffffffffffffffffffffff167f8be0079c531659141344cd1fd0a4f28419497f9722a3daafe3b4186f6b6457e060405160405180910390a35080600460006101000a81548173ffffffffffffffffffffffffffffffffffffffff021916908373ffffffffffffffffffffffffffffffffffffffff1602179055505061014c565b600033905090565b612af8806200015c6000396000f3fe608060405234801561001057600080fd5b50600436106100cf5760003560e01c8063483d86511161008c578063715018a611610066578063715018a61461063d5780638da5cb5b14610647578063e7a5d1b81461067b578063f2fde38b146106e9576100cf565b8063483d86511461048c5780635e7c815214610559578063701a970d146105b1576100cf565b806304f3bcec146100d45780630d7b4b3d14610108578063150b7a02146101565780631d9fa2431461028e57806343608e491461033157806343af356b146103d4575b600080fd5b6100dc61072d565b604051808273ffffffffffffffffffffffffffffffffffffffff16815260200191505060405180910390f35b6101546004803603604081101561011e57600080fd5b81019080803573ffffffffffffffffffffffffffffffffffffffff16906020019092919080359060200190929190505050610753565b005b6102596004803603608081101561016c57600080fd5b81019080803573ffffffffffffffffffffffffffffffffffffffff169060200190929190803573ffffffffffffffffffffffffffffffffffffffff16906020019092919080359060200190929190803590602001906401000000008111156101d357600080fd5b8201836020820111156101e557600080fd5b8035906020019184600183028401116401000000008311171561020757600080fd5b91908080601f016020809104026020016040519081016040528093929190818152602001838380828437600081840152601f19601f82011690508083019250505050505050919291929050505061093c565b60405180827bffffffffffffffffffffffffffffffffffffffffffffffffffffffff1916815260200191505060405180910390f35b61032f600480360360608110156102a457600080fd5b81019080803573ffffffffffffffffffffffffffffffffffffffff16906020019092919080359060200190929190803590602001906401000000008111156102eb57600080fd5b8201836020820111156102fd57600080fd5b8035906020019184600183028401116401000000008311171561031f57600080fd5b9091929391929390505050610950565b005b6103d26004803603606081101561034757600080fd5b81019080803573ffffffffffffffffffffffffffffffffffffffff169060200190929190803590602001909291908035906020019064010000000081111561038e57600080fd5b8201836020820111156103a057600080fd5b803590602001918460018302840111640100000000831117156103c257600080fd5b9091929391929390505050610d7b565b005b610420600480360360408110156103ea57600080fd5b81019080803573ffffffffffffffffffffffffffffffffffffffff1690602001909291908035906020019092919050505061124b565b604051808873ffffffffffffffffffffffffffffffffffffffff1681526020018773ffffffffffffffffffffffffffffffffffffffff16815260200186815260200185815260200184815260200183815260200182815260200197505050505050505060405180910390f35b610557600480360360a08110156104a257600080fd5b81019080803573ffffffffffffffffffffffffffffffffffffffff169060200190929190803573ffffffffffffffffffffffffffffffffffffffff16906020019092919080359060200190929190803590602001909291908035906020019064010000000081111561051357600080fd5b82018360208201111561052557600080fd5b8035906020019184600183028401116401000000008311171561054757600080fd5b90919293919293905050506112da565b005b61059b6004803603602081101561056f57600080fd5b81019080803573ffffffffffffffffffffffffffffffffffffffff16906020019092919050505061198a565b6040518082815260200191505060405180910390f35b61063b600480360360c08110156105c757600080fd5b81019080803573ffffffffffffffffffffffffffffffffffffffff16906020019092919080359060200190929190803590602001909291908035906020019092919080359060200190929190803573ffffffffffffffffffffffffffffffffffffffff1690602001909291905050506119d6565b005b610645611eb2565b005b61064f61203d565b604051808273ffffffffffffffffffffffffffffffffffffffff16815260200191505060405180910390f35b6106bd6004803603602081101561069157600080fd5b81019080803573ffffffffffffffffffffffffffffffffffffffff169060200190929190505050612067565b604051808273ffffffffffffffffffffffffffffffffffffffff16815260200191505060405180910390f35b61072b600480360360208110156106ff57600080fd5b81019080803573ffffffffffffffffffffffffffffffffffffffff16906020019092919050505061212a565b005b600460009054906101000a900473ffffffffffffffffffffffffffffffffffffffff1681565b6000600260008473ffffffffffffffffffffffffffffffffffffffff1673ffffffffffffffffffffffffffffffffffffffff168152602001908152602001600020600083815260200190815260200160002090503373ffffffffffffffffffffffffffffffffffffffff168160000160009054906101000a900473ffffffffffffffffffffffffffffffffffffffff1673ffffffffffffffffffffffffffffffffffffffff161461086c576040517f08c379a000000000000000000000000000000000000000000000000000000000815260040180806020018281038252600a8152602001807f6e6f74206c656e6465720000000000000000000000000000000000000000000081525060200191505060405180910390fd5b8273ffffffffffffffffffffffffffffffffffffffff166342842e0e308360000160009054906101000a900473ffffffffffffffffffffffffffffffffffffffff16856040518463ffffffff1660e01b8152600401808473ffffffffffffffffffffffffffffffffffffffff1681526020018373ffffffffffffffffffffffffffffffffffffffff1681526020018281526020019350505050600060405180830381600087803b15801561091f57600080fd5b505af1158015610933573d6000803e3d6000fd5b50505050505050565b600063150b7a0260e01b9050949350505050565b600260005414156109c9576040517f08c379a000000000000000000000000000000000000000000000000000000000815260040180806020018281038252601f8152602001807f5265656e7472616e637947756172643a207265656e7472616e742063616c6c0081525060200191505060405180910390fd5b60026000819055506000600260008673ffffffffffffffffffffffffffffffffffffffff1673ffffffffffffffffffffffffffffffffffffffff168152602001908152602001600020600085815260200190815260200160002090503373ffffffffffffffffffffffffffffffffffffffff168160000160009054906101000a900473ffffffffffffffffffffffffffffffffffffffff1673ffffffffffffffffffffffffffffffffffffffff1614610aea576040517f08c379a000000000000000000000000000000000000000000000000000000000815260040180806020018281038252600a8152602001807f6e6f74206c656e6465720000000000000000000000000000000000000000000081525060200191505060405180910390fd5b600073ffffffffffffffffffffffffffffffffffffffff168160010160009054906101000a900473ffffffffffffffffffffffffffffffffffffffff1673ffffffffffffffffffffffffffffffffffffffff161415610bb1576040517f08c379a00000000000000000000000000000000000000000000000000000000081526004018080602001828103825260108152602001807f6e6674206e6f74206c656e74206f75740000000000000000000000000000000081525060200191505060405180910390fd5b6000610bdf62015180610bd184600501544261233a90919063ffffffff16565b61238490919063ffffffff16565b905081600301548111610c5a576040517f08c379a00000000000000000000000000000000000000000000000000000000081526004018080602001828103825260158152602001807f6475726174696f6e206e6f74206578636565646564000000000000000000000081525060200191505060405180910390fd5b610c63826123ce565b610d6b338360060154600460009054906101000a900473ffffffffffffffffffffffffffffffffffffffff1673ffffffffffffffffffffffffffffffffffffffff16637fe1dc7e88886040518363ffffffff1660e01b815260040180806020018281038252848482818152602001925080828437600081840152601f19601f820116905080830192505050935050505060206040518083038186803b158015610d0b57600080fd5b505afa158015610d1f573d6000803e3d6000fd5b505050506040513d6020811015610d3557600080fd5b810190808051906020019092919050505073ffffffffffffffffffffffffffffffffffffffff166124299092919063ffffffff16565b5050600160008190555050505050565b60026000541415610df4576040517f08c379a000000000000000000000000000000000000000000000000000000000815260040180806020018281038252601f8152602001807f5265656e7472616e637947756172643a207265656e7472616e742063616c6c0081525060200191505060405180910390fd5b60026000819055506000600260008673ffffffffffffffffffffffffffffffffffffffff1673ffffffffffffffffffffffffffffffffffffffff168152602001908152602001600020600085815260200190815260200160002090503373ffffffffffffffffffffffffffffffffffffffff168160010160009054906101000a900473ffffffffffffffffffffffffffffffffffffffff1673ffffffffffffffffffffffffffffffffffffffff1614610f15576040517f08c379a000000000000000000000000000000000000000000000000000000000815260040180806020018281038252600c8152602001807f6e6f7420626f72726f776572000000000000000000000000000000000000000081525060200191505060405180910390fd5b6000610f4362015180610f3584600501544261233a90919063ffffffff16565b61238490919063ffffffff16565b90508160030154811115610fbf576040517f08c379a00000000000000000000000000000000000000000000000000000000081526004018080602001828103825260118152602001807f6475726174696f6e20657863656564656400000000000000000000000000000081525060200191505060405180910390fd5b8573ffffffffffffffffffffffffffffffffffffffff166342842e0e3330886040518463ffffffff1660e01b8152600401808473ffffffffffffffffffffffffffffffffffffffff1681526020018373ffffffffffffffffffffffffffffffffffffffff1681526020018281526020019350505050600060405180830381600087803b15801561104e57600080fd5b505af1158015611062573d6000803e3d6000fd5b505050506111928260010160009054906101000a900473ffffffffffffffffffffffffffffffffffffffff168360060154600460009054906101000a900473ffffffffffffffffffffffffffffffffffffffff1673ffffffffffffffffffffffffffffffffffffffff16637fe1dc7e88886040518363ffffffff1660e01b815260040180806020018281038252848482818152602001925080828437600081840152601f19601f820116905080830192505050935050505060206040518083038186803b15801561113257600080fd5b505afa158015611146573d6000803e3d6000fd5b505050506040513d602081101561115c57600080fd5b810190808051906020019092919050505073ffffffffffffffffffffffffffffffffffffffff166124299092919063ffffffff16565b61119b826123ce565b3373ffffffffffffffffffffffffffffffffffffffff16858773ffffffffffffffffffffffffffffffffffffffff167fb2daed44d220268da5ecf61100cc83480155f3f45250961b09cb82061f5f27fc8560000160009054906101000a900473ffffffffffffffffffffffffffffffffffffffff16604051808273ffffffffffffffffffffffffffffffffffffffff16815260200191505060405180910390a45050600160008190555050505050565b6002602052816000526040600020602052806000526040600020600091509150508060000160009054906101000a900473ffffffffffffffffffffffffffffffffffffffff16908060010160009054906101000a900473ffffffffffffffffffffffffffffffffffffffff16908060020154908060030154908060040154908060050154908060060154905087565b60026000541415611353576040517f08c379a000000000000000000000000000000000000000000000000000000000815260040180806020018281038252601f8152602001807f5265656e7472616e637947756172643a207265656e7472616e742063616c6c0081525060200191505060405180910390fd5b60026000819055506000600260008773ffffffffffffffffffffffffffffffffffffffff1673ffffffffffffffffffffffffffffffffffffffff16815260200190815260200160002060008681526020019081526020016000209050600073ffffffffffffffffffffffffffffffffffffffff168160000160009054906101000a900473ffffffffffffffffffffffffffffffffffffffff1673ffffffffffffffffffffffffffffffffffffffff161415611476576040517f08c379a00000000000000000000000000000000000000000000000000000000081526004018080602001828103825260158152602001807f636f756c64206e6f742066696e6420616e204e4654000000000000000000000081525060200191505060405180910390fd5b8060000160009054906101000a900473ffffffffffffffffffffffffffffffffffffffff1673ffffffffffffffffffffffffffffffffffffffff168773ffffffffffffffffffffffffffffffffffffffff16141561153c576040517f08c379a00000000000000000000000000000000000000000000000000000000081526004018080602001828103825260148152602001807f63616e277420626f72726f77206f776e206e667400000000000000000000000081525060200191505060405180910390fd5b80600201548411156115b6576040517f08c379a00000000000000000000000000000000000000000000000000000000081526004018080602001828103825260158152602001807f4d6178204475726174696f6e206578636565646564000000000000000000000081525060200191505060405180910390fd5b6116c087308360060154600460009054906101000a900473ffffffffffffffffffffffffffffffffffffffff1673ffffffffffffffffffffffffffffffffffffffff16637fe1dc7e88886040518363ffffffff1660e01b815260040180806020018281038252848482818152602001925080828437600081840152601f19601f820116905080830192505050935050505060206040518083038186803b15801561165f57600080fd5b505afa158015611673573d6000803e3d6000fd5b505050506040513d602081101561168957600080fd5b810190808051906020019092919050505073ffffffffffffffffffffffffffffffffffffffff166124cb909392919063ffffffff16565b86600260008873ffffffffffffffffffffffffffffffffffffffff1673ffffffffffffffffffffffffffffffffffffffff168152602001908152602001600020600087815260200190815260200160002060010160006101000a81548173ffffffffffffffffffffffffffffffffffffffff021916908373ffffffffffffffffffffffffffffffffffffffff16021790555042600260008873ffffffffffffffffffffffffffffffffffffffff1673ffffffffffffffffffffffffffffffffffffffff16815260200190815260200160002060008781526020019081526020016000206005018190555083600260008873ffffffffffffffffffffffffffffffffffffffff1673ffffffffffffffffffffffffffffffffffffffff1681526020019081526020016000206000878152602001908152602001600020600301819055508573ffffffffffffffffffffffffffffffffffffffff166342842e0e3089886040518463ffffffff1660e01b8152600401808473ffffffffffffffffffffffffffffffffffffffff1681526020018373ffffffffffffffffffffffffffffffffffffffff1681526020018281526020019350505050600060405180830381600087803b15801561189157600080fd5b505af11580156118a5573d6000803e3d6000fd5b505050508673ffffffffffffffffffffffffffffffffffffffff16858773ffffffffffffffffffffffffffffffffffffffff167f5c19f9cdfeed52e21a75a98d68d8ac9a91a8311e9d68a8c6886134ee8df784b28460000160009054906101000a900473ffffffffffffffffffffffffffffffffffffffff168560050154866004015487600301548860060154604051808673ffffffffffffffffffffffffffffffffffffffff1681526020018581526020018481526020018381526020018281526020019550505050505060405180910390a4506001600081905550505050505050565b6000600360008373ffffffffffffffffffffffffffffffffffffffff1673ffffffffffffffffffffffffffffffffffffffff168152602001908152602001600020805490509050919050565b60026000541415611a4f576040517f08c379a000000000000000000000000000000000000000000000000000000000815260040180806020018281038252601f8152602001807f5265656e7472616e637947756172643a207265656e7472616e742063616c6c0081525060200191505060405180910390fd5b6002600081905550600073ffffffffffffffffffffffffffffffffffffffff168673ffffffffffffffffffffffffffffffffffffffff161415611afa576040517f08c379a00000000000000000000000000000000000000000000000000000000081526004018080602001828103825260138152602001807f696e76616c6964204e465420616464726573730000000000000000000000000081525060200191505060405180910390fd5b60008411611b70576040517f08c379a00000000000000000000000000000000000000000000000000000000081526004018080602001828103825260108152602001807f6174206c65617374206f6e65206461790000000000000000000000000000000081525060200191505060405180910390fd5b6040518060e001604052803373ffffffffffffffffffffffffffffffffffffffff168152602001600073ffffffffffffffffffffffffffffffffffffffff168152602001858152602001600081526020018481526020016000815260200183815250600260008873ffffffffffffffffffffffffffffffffffffffff1673ffffffffffffffffffffffffffffffffffffffff168152602001908152602001600020600087815260200190815260200160002060008201518160000160006101000a81548173ffffffffffffffffffffffffffffffffffffffff021916908373ffffffffffffffffffffffffffffffffffffffff16021790555060208201518160010160006101000a81548173ffffffffffffffffffffffffffffffffffffffff021916908373ffffffffffffffffffffffffffffffffffffffff16021790555060408201518160020155606082015181600301556080820151816004015560a0820151816005015560c082015181600601559050508573ffffffffffffffffffffffffffffffffffffffff166342842e0e3330886040518463ffffffff1660e01b8152600401808473ffffffffffffffffffffffffffffffffffffffff1681526020018373ffffffffffffffffffffffffffffffffffffffff1681526020018281526020019350505050600060405180830381600087803b158015611d7457600080fd5b505af1158015611d88573d6000803e3d6000fd5b50505050600360008773ffffffffffffffffffffffffffffffffffffffff1673ffffffffffffffffffffffffffffffffffffffff168152602001908152602001600020819080600181540180825580915050600190039060005260206000200160009091909190916101000a81548173ffffffffffffffffffffffffffffffffffffffff021916908373ffffffffffffffffffffffffffffffffffffffff1602179055503373ffffffffffffffffffffffffffffffffffffffff16858773ffffffffffffffffffffffffffffffffffffffff167fca96363ba8a9ac89bc9c5919c129b43f11b81545f4e52364a0bd3744fb0f6f0887878760405180848152602001838152602001828152602001935050505060405180910390a46001600081905550505050505050565b611eba61258c565b73ffffffffffffffffffffffffffffffffffffffff16600160009054906101000a900473ffffffffffffffffffffffffffffffffffffffff1673ffffffffffffffffffffffffffffffffffffffff1614611f7c576040517f08c379a00000000000000000000000000000000000000000000000000000000081526004018080602001828103825260208152602001807f4f776e61626c653a2063616c6c6572206973206e6f7420746865206f776e657281525060200191505060405180910390fd5b600073ffffffffffffffffffffffffffffffffffffffff16600160009054906101000a900473ffffffffffffffffffffffffffffffffffffffff1673ffffffffffffffffffffffffffffffffffffffff167f8be0079c531659141344cd1fd0a4f28419497f9722a3daafe3b4186f6b6457e060405160405180910390a36000600160006101000a81548173ffffffffffffffffffffffffffffffffffffffff021916908373ffffffffffffffffffffffffffffffffffffffff160217905550565b6000600160009054906101000a900473ffffffffffffffffffffffffffffffffffffffff16905090565b6000600360008373ffffffffffffffffffffffffffffffffffffffff1673ffffffffffffffffffffffffffffffffffffffff1681526020019081526020016000206001600360008573ffffffffffffffffffffffffffffffffffffffff1673ffffffffffffffffffffffffffffffffffffffff1681526020019081526020016000208054905003815481106120f857fe5b9060005260206000200160009054906101000a900473ffffffffffffffffffffffffffffffffffffffff169050919050565b61213261258c565b73ffffffffffffffffffffffffffffffffffffffff16600160009054906101000a900473ffffffffffffffffffffffffffffffffffffffff1673ffffffffffffffffffffffffffffffffffffffff16146121f4576040517f08c379a00000000000000000000000000000000000000000000000000000000081526004018080602001828103825260208152602001807f4f776e61626c653a2063616c6c6572206973206e6f7420746865206f776e657281525060200191505060405180910390fd5b600073ffffffffffffffffffffffffffffffffffffffff168173ffffffffffffffffffffffffffffffffffffffff16141561227a576040517f08c379a0000000000000000000000000000000000000000000000000000000008152600401808060200182810382526026815260200180612a736026913960400191505060405180910390fd5b8073ffffffffffffffffffffffffffffffffffffffff16600160009054906101000a900473ffffffffffffffffffffffffffffffffffffffff1673ffffffffffffffffffffffffffffffffffffffff167f8be0079c531659141344cd1fd0a4f28419497f9722a3daafe3b4186f6b6457e060405160405180910390a380600160006101000a81548173ffffffffffffffffffffffffffffffffffffffff021916908373ffffffffffffffffffffffffffffffffffffffff16021790555050565b600061237c83836040518060400160405280601e81526020017f536166654d6174683a207375627472616374696f6e206f766572666c6f770000815250612594565b905092915050565b60006123c683836040518060400160405280601a81526020017f536166654d6174683a206469766973696f6e206279207a65726f000000000000815250612654565b905092915050565b60008160010160006101000a81548173ffffffffffffffffffffffffffffffffffffffff021916908373ffffffffffffffffffffffffffffffffffffffff160217905550600081600301819055506000816005018190555050565b6124c68363a9059cbb60e01b8484604051602401808373ffffffffffffffffffffffffffffffffffffffff16815260200182815260200192505050604051602081830303815290604052907bffffffffffffffffffffffffffffffffffffffffffffffffffffffff19166020820180517bffffffffffffffffffffffffffffffffffffffffffffffffffffffff838183161783525050505061271a565b505050565b612586846323b872dd60e01b858585604051602401808473ffffffffffffffffffffffffffffffffffffffff1681526020018373ffffffffffffffffffffffffffffffffffffffff1681526020018281526020019350505050604051602081830303815290604052907bffffffffffffffffffffffffffffffffffffffffffffffffffffffff19166020820180517bffffffffffffffffffffffffffffffffffffffffffffffffffffffff838183161783525050505061271a565b50505050565b600033905090565b6000838311158290612641576040517f08c379a00000000000000000000000000000000000000000000000000000000081526004018080602001828103825283818151815260200191508051906020019080838360005b838110156126065780820151818401526020810190506125eb565b50505050905090810190601f1680156126335780820380516001836020036101000a031916815260200191505b509250505060405180910390fd5b5060008385039050809150509392505050565b60008083118290612700576040517f08c379a00000000000000000000000000000000000000000000000000000000081526004018080602001828103825283818151815260200191508051906020019080838360005b838110156126c55780820151818401526020810190506126aa565b50505050905090810190601f1680156126f25780820380516001836020036101000a031916815260200191505b509250505060405180910390fd5b50600083858161270c57fe5b049050809150509392505050565b606061277c826040518060400160405280602081526020017f5361666545524332303a206c6f772d6c6576656c2063616c6c206661696c65648152508573ffffffffffffffffffffffffffffffffffffffff166128099092919063ffffffff16565b90506000815111156128045780806020019051602081101561279d57600080fd5b8101908080519060200190929190505050612803576040517f08c379a000000000000000000000000000000000000000000000000000000000815260040180806020018281038252602a815260200180612a99602a913960400191505060405180910390fd5b5b505050565b60606128188484600085612821565b90509392505050565b606061282c85612a27565b61289e576040517f08c379a000000000000000000000000000000000000000000000000000000000815260040180806020018281038252601d8152602001807f416464726573733a2063616c6c20746f206e6f6e2d636f6e747261637400000081525060200191505060405180910390fd5b600060608673ffffffffffffffffffffffffffffffffffffffff1685876040518082805190602001908083835b602083106128ee57805182526020820191506020810190506020830392506128cb565b6001836020036101000a03801982511681845116808217855250505050505090500191505060006040518083038185875af1925050503d8060008114612950576040519150601f19603f3d011682016040523d82523d6000602084013e612955565b606091505b5091509150811561296a578092505050612a1f565b60008151111561297d5780518082602001fd5b836040517f08c379a00000000000000000000000000000000000000000000000000000000081526004018080602001828103825283818151815260200191508051906020019080838360005b838110156129e45780820151818401526020810190506129c9565b50505050905090810190601f168015612a115780820380516001836020036101000a031916815260200191505b509250505060405180910390fd5b949350505050565b60008060007fc5d2460186f7233c927e7db2dcc703c0e500b653ca82273b7bfad8045d85a47060001b9050833f9150808214158015612a6957506000801b8214155b9250505091905056fe4f776e61626c653a206e6577206f776e657220697320746865207a65726f20616464726573735361666545524332303a204552433230206f7065726174696f6e20646964206e6f742073756363656564a26469706673582212204d37e6752c994d06edcdaf862c2efaa1962e55f8dab697c9b546586c9c93f17364736f6c63430007010033",
  "immutableReferences": {},
  "source": "// SPDX-License-Identifier: MIT\npragma solidity ^0.7.0;\n\nimport \"./RentNftAddressProvider.sol\";\nimport \"@openzeppelin/contracts/utils/ReentrancyGuard.sol\";\nimport \"@openzeppelin/contracts/access/Ownable.sol\";\nimport \"@openzeppelin/contracts/token/ERC20/SafeERC20.sol\";\nimport \"@openzeppelin/contracts/token/ERC20/ERC20.sol\";\nimport \"@openzeppelin/contracts/token/ERC721/ERC721.sol\";\nimport \"@openzeppelin/contracts/token/ERC721/ERC721Holder.sol\";\n\ncontract RentNft is ReentrancyGuard, Ownable, ERC721Holder {\n  using SafeMath for uint256;\n  using SafeERC20 for ERC20;\n\n  // TODO: if thre are defaults, mark the address to forbid from renting\n  event Lent(\n    address indexed nftAddress,\n    uint256 indexed tokenId,\n    address indexed lender,\n    uint256 maxDuration,\n    uint256 borrowPrice,\n    uint256 nftPrice\n  );\n\n  event Borrowed(\n    address indexed nftAddress,\n    uint256 indexed tokenId,\n    address indexed borrower,\n    address lender,\n    uint256 borrowedAt,\n    uint256 borrowPrice,\n    uint256 actualDuration,\n    uint256 nftPrice\n  );\n\n  event Returned(\n    address indexed nftAddress,\n    uint256 indexed tokenId,\n    address indexed borrower,\n    address lender\n  );\n\n  struct Nft {\n    address lender;\n    address borrower;\n    uint256 maxDuration; // set by lender. max borrow duration in days\n    uint256 actualDuration; // set by borrower. actual duration borrower will have the NFT for. This gets populated on the rent call\n    uint256 borrowPrice; // set by lender. how much the borrower has to pay irrevocably daily\n    uint256 borrowedAt; // set by borrower. time at which nft is borrowed\n    uint256 nftPrice; // set by lender. how much lender will receive as collateral if borrower does not return nft in time\n  }\n\n  mapping(address => mapping(uint256 => Nft)) public nfts;\n  // todo: the latter does not get updates. time pressures\n  mapping(address => address[]) private lenderCashflows;\n\n  RentNftAddressProvider public resolver;\n\n  constructor(address _resolver) {\n    resolver = RentNftAddressProvider(_resolver);\n  }\n\n  function onERC721Received(\n    address,\n    address,\n    uint256,\n    bytes memory\n  ) public virtual override returns (bytes4) {\n    return this.onERC721Received.selector;\n  }\n\n  // todo: limitation: cashflow addreses are only appended, they are never removed\n  function lendOne(\n    address _nftAddress,\n    uint256 _tokenId,\n    uint256 _maxDuration,\n    uint256 _borrowPrice,\n    uint256 _nftPrice,\n    address _cashflowAddress\n  ) public nonReentrant {\n    require(_nftAddress != address(0), \"invalid NFT address\");\n    require(_maxDuration > 0, \"at least one day\");\n\n    nfts[_nftAddress][_tokenId] = Nft({\n      lender: msg.sender,\n      borrower: address(0),\n      maxDuration: _maxDuration,\n      actualDuration: 0,\n      borrowPrice: _borrowPrice,\n      borrowedAt: 0,\n      nftPrice: _nftPrice\n    });\n\n    // transfer nft to this contract. will fail if nft wasn't approved\n    // this transfers the GanFace but not the TradeableCashflow\n    ERC721(_nftAddress).safeTransferFrom(msg.sender, address(this), _tokenId);\n    lenderCashflows[_nftAddress].push(_cashflowAddress);\n\n    emit Lent(\n      _nftAddress,\n      _tokenId,\n      msg.sender,\n      _maxDuration,\n      _borrowPrice,\n      _nftPrice\n    );\n  }\n\n  function rentOne(\n    address _borrower,\n    address _nftAddress,\n    uint256 _tokenId,\n    uint256 _actualDuration,\n    bytes calldata _token // token in which the rent is paid\n  ) public nonReentrant {\n    Nft storage nft = nfts[_nftAddress][_tokenId];\n\n    require(nft.lender != address(0), \"could not find an NFT\");\n    require(_borrower != nft.lender, \"can't borrow own nft\");\n    require(_actualDuration <= nft.maxDuration, \"Max Duration exceeded\");\n\n    // TODO: function here to loop through all of the current borrowers and pick\n    // a receiver for the flow\n\n    // ! will fail if wasn't approved\n    // pay the NFT owner the rent price\n    // * the borrow amounts are not paid into the streemable NFT\n    // uint256 rentPrice = _actualDuration.mul(nft.borrowPrice);\n    // ERC20(resolver.getToken(_token)).safeTransferFrom(\n    //   _borrower,\n    //   nft.lender,\n    //   rentPrice\n    // );\n    // collateral, our contracts acts as an escrow\n    ERC20(resolver.getToken(_token)).safeTransferFrom(\n      _borrower,\n      address(this),\n      nft.nftPrice\n    );\n\n    nfts[_nftAddress][_tokenId].borrower = _borrower;\n    nfts[_nftAddress][_tokenId].borrowedAt = block.timestamp;\n    nfts[_nftAddress][_tokenId].actualDuration = _actualDuration;\n\n    ERC721(_nftAddress).safeTransferFrom(address(this), _borrower, _tokenId);\n\n    emit Borrowed(\n      _nftAddress,\n      _tokenId,\n      _borrower,\n      nft.lender,\n      nft.borrowedAt,\n      nft.borrowPrice,\n      nft.actualDuration,\n      nft.nftPrice\n    );\n  }\n\n  function returnNftOne(\n    address _nftAddress,\n    uint256 _tokenId,\n    bytes calldata _token\n  ) public nonReentrant {\n    Nft storage nft = nfts[_nftAddress][_tokenId];\n\n    require(nft.borrower == msg.sender, \"not borrower\");\n    uint256 durationInDays = block.timestamp.sub(nft.borrowedAt).div(86400);\n    require(durationInDays <= nft.actualDuration, \"duration exceeded\");\n\n    // we are returning back to the contract so that the owner does not have to add\n    // it multiple times thus incurring the transaction costs\n    ERC721(_nftAddress).safeTransferFrom(msg.sender, address(this), _tokenId);\n    ERC20(resolver.getToken(_token)).safeTransfer(nft.borrower, nft.nftPrice);\n\n    resetBorrow(nft);\n    emit Returned(_nftAddress, _tokenId, msg.sender, nft.lender);\n  }\n\n  function stopLending(address _nftAddress, uint256 _tokenId) public {\n    Nft storage nft = nfts[_nftAddress][_tokenId];\n    require(nft.lender == msg.sender, \"not lender\");\n    ERC721(_nftAddress).safeTransferFrom(address(this), nft.lender, _tokenId);\n  }\n\n  // TODO: onlyOwner method to be called every day at midnight to automatically\n  // default whoever has not returned the NFT in time\n  function claimCollateral(\n    address _nftAddress,\n    uint256 _tokenId,\n    bytes calldata _token\n  ) public nonReentrant {\n    Nft storage nft = nfts[_nftAddress][_tokenId];\n    require(nft.lender == msg.sender, \"not lender\");\n    require(nft.borrower != address(0), \"nft not lent out\");\n\n    uint256 durationInDays = block.timestamp.sub(nft.borrowedAt).div(86400);\n    require(durationInDays > nft.actualDuration, \"duration not exceeded\");\n\n    resetBorrow(nft);\n    ERC20(resolver.getToken(_token)).safeTransfer(msg.sender, nft.nftPrice);\n  }\n\n  function resetBorrow(Nft storage nft) internal {\n    nft.borrower = address(0);\n    nft.actualDuration = 0;\n    nft.borrowedAt = 0;\n  }\n\n  function getNumCashflows(address nft) public view returns (uint256) {\n    return lenderCashflows[nft].length;\n  }\n\n  function getLastCashflow(address nft) external view returns (address) {\n    return lenderCashflows[nft][lenderCashflows[nft].length - 1];\n  }\n}\n\n// lend multiple nfts that you own to be borrowable by Rent NFT\n// for gas saving\n// function lendMultiple(\n//   address[] calldata _nftAddresses,\n//   uint256[] calldata _tokenIds,\n//   uint256[] calldata _maxDurations,\n//   uint256[] calldata _borrowPrices,\n//   uint256[] calldata _nftPrices\n// ) external {\n//   require(_nftAddresses.length == _tokenIds.length, \"not equal length\");\n//   require(_tokenIds.length == _maxDurations.length, \"not equal length\");\n//   require(_maxDurations.length == _borrowPrices.length, \"not equal length\");\n//   require(_borrowPrices.length == _nftPrices.length, \"not equal length\");\n\n//   for (uint256 i = 0; i < _nftAddresses.length; i++) {\n//     lendOne(\n//       _nftAddresses[i],\n//       _tokenIds[i],\n//       _maxDurations[i],\n//       _borrowPrices[i],\n//       _nftPrices[i]\n//     );\n//   }\n// }\n\n// function rentMultiple(\n//   address _borrower,\n//   address[] calldata _nftAddresses,\n//   uint256[] calldata _tokenIds,\n//   uint256[] calldata _actualDurations,\n//   bytes8[] calldata _tokens\n// ) external {\n//   require(_nftAddresses.length == _tokenIds.length, \"not equal length\");\n//   require(_tokenIds.length == _actualDurations.length, \"not equal length\");\n//   for (uint256 i = 0; i < _nftAddresses.length; i++) {\n//     rentOne(_borrower, _nftAddresses[i], _tokenIds[i], _actualDurations[i], _tokens[i]);\n//   }\n// }\n\n// function returnNftMultiple(\n//   address[] calldata _nftAddresses,\n//   uint256[] calldata _tokenIds,\n//   bytes8[] calldata _token\n// ) external {\n//   require(_nftAddresses.length == _tokenIds.length, \"not equal length\");\n//   for (uint256 i = 0; i < _nftAddresses.length; i++) {\n//     returnNftOne(_nftAddresses[i], _tokenIds[i], _token[i]);\n//   }\n// }\n",
  "sourcePath": "/Users/shredder/git/superfluid/contracts/contracts/RentNft.sol",
  "compiler": {
    "name": "solc",
    "version": "0.7.1+commit.f4a555be.Emscripten.clang"
  },
  "schemaVersion": "3.3.2",
  "updatedAt": "2020-11-13T19:02:29.204Z",
  "devdoc": {
    "kind": "dev",
    "methods": {
      "onERC721Received(address,address,uint256,bytes)": {
        "details": "See {IERC721Receiver-onERC721Received}. Always returns `IERC721Receiver.onERC721Received.selector`."
      },
      "owner()": {
        "details": "Returns the address of the current owner."
      },
      "renounceOwnership()": {
        "details": "Leaves the contract without owner. It will not be possible to call `onlyOwner` functions anymore. Can only be called by the current owner. NOTE: Renouncing ownership will leave the contract without an owner, thereby removing any functionality that is only available to the owner."
      },
      "transferOwnership(address)": {
        "details": "Transfers ownership of the contract to a new account (`newOwner`). Can only be called by the current owner."
      }
    },
    "version": 1
  },
  "userdoc": {
    "kind": "user",
    "methods": {},
    "version": 1
  }
}