{
  "contractName": "RentNft",
  "abi": [
    {
      "inputs": [
        {
          "internalType": "address",
          "name": "_resolver",
          "type": "address"
        }
      ],
      "stateMutability": "nonpayable",
      "type": "constructor"
    },
    {
      "anonymous": false,
      "inputs": [
        {
          "indexed": true,
          "internalType": "address",
          "name": "nftAddress",
          "type": "address"
        },
        {
          "indexed": true,
          "internalType": "uint256",
          "name": "tokenId",
          "type": "uint256"
        },
        {
          "indexed": true,
          "internalType": "address",
          "name": "borrower",
          "type": "address"
        },
        {
          "indexed": false,
          "internalType": "address",
          "name": "lender",
          "type": "address"
        },
        {
          "indexed": false,
          "internalType": "uint256",
          "name": "borrowedAt",
          "type": "uint256"
        },
        {
          "indexed": false,
          "internalType": "uint256",
          "name": "borrowPrice",
          "type": "uint256"
        },
        {
          "indexed": false,
          "internalType": "uint256",
          "name": "actualDuration",
          "type": "uint256"
        },
        {
          "indexed": false,
          "internalType": "uint256",
          "name": "nftPrice",
          "type": "uint256"
        }
      ],
      "name": "Borrowed",
      "type": "event"
    },
    {
      "anonymous": false,
      "inputs": [
        {
          "indexed": true,
          "internalType": "address",
          "name": "nftAddress",
          "type": "address"
        },
        {
          "indexed": true,
          "internalType": "uint256",
          "name": "tokenId",
          "type": "uint256"
        },
        {
          "indexed": true,
          "internalType": "address",
          "name": "lender",
          "type": "address"
        },
        {
          "indexed": false,
          "internalType": "uint256",
          "name": "maxDuration",
          "type": "uint256"
        },
        {
          "indexed": false,
          "internalType": "uint256",
          "name": "borrowPrice",
          "type": "uint256"
        },
        {
          "indexed": false,
          "internalType": "uint256",
          "name": "nftPrice",
          "type": "uint256"
        }
      ],
      "name": "Lent",
      "type": "event"
    },
    {
      "anonymous": false,
      "inputs": [
        {
          "indexed": true,
          "internalType": "address",
          "name": "previousOwner",
          "type": "address"
        },
        {
          "indexed": true,
          "internalType": "address",
          "name": "newOwner",
          "type": "address"
        }
      ],
      "name": "OwnershipTransferred",
      "type": "event"
    },
    {
      "anonymous": false,
      "inputs": [
        {
          "indexed": true,
          "internalType": "address",
          "name": "nftAddress",
          "type": "address"
        },
        {
          "indexed": true,
          "internalType": "uint256",
          "name": "tokenId",
          "type": "uint256"
        },
        {
          "indexed": true,
          "internalType": "address",
          "name": "borrower",
          "type": "address"
        },
        {
          "indexed": false,
          "internalType": "address",
          "name": "lender",
          "type": "address"
        }
      ],
      "name": "Returned",
      "type": "event"
    },
    {
      "inputs": [
        {
          "internalType": "address",
          "name": "",
          "type": "address"
        },
        {
          "internalType": "uint256",
          "name": "",
          "type": "uint256"
        }
      ],
      "name": "lenderCashflows",
      "outputs": [
        {
          "internalType": "address",
          "name": "",
          "type": "address"
        }
      ],
      "stateMutability": "view",
      "type": "function",
      "constant": true
    },
    {
      "inputs": [
        {
          "internalType": "address",
          "name": "",
          "type": "address"
        },
        {
          "internalType": "uint256",
          "name": "",
          "type": "uint256"
        }
      ],
      "name": "nfts",
      "outputs": [
        {
          "internalType": "address",
          "name": "lender",
          "type": "address"
        },
        {
          "internalType": "address",
          "name": "borrower",
          "type": "address"
        },
        {
          "internalType": "uint256",
          "name": "maxDuration",
          "type": "uint256"
        },
        {
          "internalType": "uint256",
          "name": "actualDuration",
          "type": "uint256"
        },
        {
          "internalType": "uint256",
          "name": "borrowPrice",
          "type": "uint256"
        },
        {
          "internalType": "uint256",
          "name": "borrowedAt",
          "type": "uint256"
        },
        {
          "internalType": "uint256",
          "name": "nftPrice",
          "type": "uint256"
        }
      ],
      "stateMutability": "view",
      "type": "function",
      "constant": true
    },
    {
      "inputs": [],
      "name": "owner",
      "outputs": [
        {
          "internalType": "address",
          "name": "",
          "type": "address"
        }
      ],
      "stateMutability": "view",
      "type": "function",
      "constant": true
    },
    {
      "inputs": [],
      "name": "renounceOwnership",
      "outputs": [],
      "stateMutability": "nonpayable",
      "type": "function"
    },
    {
      "inputs": [],
      "name": "resolver",
      "outputs": [
        {
          "internalType": "contract RentNftAddressProvider",
          "name": "",
          "type": "address"
        }
      ],
      "stateMutability": "view",
      "type": "function",
      "constant": true
    },
    {
      "inputs": [
        {
          "internalType": "address",
          "name": "newOwner",
          "type": "address"
        }
      ],
      "name": "transferOwnership",
      "outputs": [],
      "stateMutability": "nonpayable",
      "type": "function"
    },
    {
      "inputs": [
        {
          "internalType": "address",
          "name": "",
          "type": "address"
        },
        {
          "internalType": "address",
          "name": "",
          "type": "address"
        },
        {
          "internalType": "uint256",
          "name": "",
          "type": "uint256"
        },
        {
          "internalType": "bytes",
          "name": "",
          "type": "bytes"
        }
      ],
      "name": "onERC721Received",
      "outputs": [
        {
          "internalType": "bytes4",
          "name": "",
          "type": "bytes4"
        }
      ],
      "stateMutability": "nonpayable",
      "type": "function"
    },
    {
      "inputs": [
        {
          "internalType": "address",
          "name": "_nftAddress",
          "type": "address"
        },
        {
          "internalType": "uint256",
          "name": "_tokenId",
          "type": "uint256"
        },
        {
          "internalType": "uint256",
          "name": "_maxDuration",
          "type": "uint256"
        },
        {
          "internalType": "uint256",
          "name": "_borrowPrice",
          "type": "uint256"
        },
        {
          "internalType": "uint256",
          "name": "_nftPrice",
          "type": "uint256"
        },
        {
          "internalType": "address",
          "name": "_cashflowAddress",
          "type": "address"
        }
      ],
      "name": "lendOne",
      "outputs": [],
      "stateMutability": "nonpayable",
      "type": "function"
    },
    {
      "inputs": [
        {
          "internalType": "address",
          "name": "_borrower",
          "type": "address"
        },
        {
          "internalType": "address",
          "name": "_nftAddress",
          "type": "address"
        },
        {
          "internalType": "uint256",
          "name": "_tokenId",
          "type": "uint256"
        },
        {
          "internalType": "uint256",
          "name": "_actualDuration",
          "type": "uint256"
        },
        {
          "internalType": "bytes",
          "name": "_token",
          "type": "bytes"
        }
      ],
      "name": "rentOne",
      "outputs": [],
      "stateMutability": "nonpayable",
      "type": "function"
    },
    {
      "inputs": [
        {
          "internalType": "address",
          "name": "_nftAddress",
          "type": "address"
        },
        {
          "internalType": "uint256",
          "name": "_tokenId",
          "type": "uint256"
        },
        {
          "internalType": "bytes",
          "name": "_token",
          "type": "bytes"
        }
      ],
      "name": "returnNftOne",
      "outputs": [],
      "stateMutability": "nonpayable",
      "type": "function"
    },
    {
      "inputs": [
        {
          "internalType": "address",
          "name": "_nftAddress",
          "type": "address"
        },
        {
          "internalType": "uint256",
          "name": "_tokenId",
          "type": "uint256"
        }
      ],
      "name": "stopLending",
      "outputs": [],
      "stateMutability": "nonpayable",
      "type": "function"
    },
    {
      "inputs": [
        {
          "internalType": "address",
          "name": "_nftAddress",
          "type": "address"
        },
        {
          "internalType": "uint256",
          "name": "_tokenId",
          "type": "uint256"
        },
        {
          "internalType": "bytes",
          "name": "_token",
          "type": "bytes"
        }
      ],
      "name": "claimCollateral",
      "outputs": [],
      "stateMutability": "nonpayable",
      "type": "function"
    }
  ],
  "bytecode": "0x608060405234801561001057600080fd5b5060405162002b2738038062002b278339818101604052602081101561003557600080fd5b81019080805190602001909291905050506001600081905550600061005e61014460201b60201c565b905080600160006101000a81548173ffffffffffffffffffffffffffffffffffffffff021916908373ffffffffffffffffffffffffffffffffffffffff1602179055508073ffffffffffffffffffffffffffffffffffffffff16600073ffffffffffffffffffffffffffffffffffffffff167f8be0079c531659141344cd1fd0a4f28419497f9722a3daafe3b4186f6b6457e060405160405180910390a35080600460006101000a81548173ffffffffffffffffffffffffffffffffffffffff021916908373ffffffffffffffffffffffffffffffffffffffff1602179055505061014c565b600033905090565b6129cb806200015c6000396000f3fe608060405234801561001057600080fd5b50600436106100b45760003560e01c8063483d865111610071578063483d865114610471578063701a970d1461053e578063715018a6146105ca57806388a8c922146105d45780638da5cb5b1461064c578063f2fde38b14610680576100b4565b806304f3bcec146100b95780630d7b4b3d146100ed578063150b7a021461013b5780631d9fa2431461027357806343608e491461031657806343af356b146103b9575b600080fd5b6100c16106c4565b604051808273ffffffffffffffffffffffffffffffffffffffff16815260200191505060405180910390f35b6101396004803603604081101561010357600080fd5b81019080803573ffffffffffffffffffffffffffffffffffffffff169060200190929190803590602001909291905050506106ea565b005b61023e6004803603608081101561015157600080fd5b81019080803573ffffffffffffffffffffffffffffffffffffffff169060200190929190803573ffffffffffffffffffffffffffffffffffffffff16906020019092919080359060200190929190803590602001906401000000008111156101b857600080fd5b8201836020820111156101ca57600080fd5b803590602001918460018302840111640100000000831117156101ec57600080fd5b91908080601f016020809104026020016040519081016040528093929190818152602001838380828437600081840152601f19601f8201169050808301925050505050505091929192905050506108d3565b60405180827bffffffffffffffffffffffffffffffffffffffffffffffffffffffff1916815260200191505060405180910390f35b6103146004803603606081101561028957600080fd5b81019080803573ffffffffffffffffffffffffffffffffffffffff16906020019092919080359060200190929190803590602001906401000000008111156102d057600080fd5b8201836020820111156102e257600080fd5b8035906020019184600183028401116401000000008311171561030457600080fd5b90919293919293905050506108e7565b005b6103b76004803603606081101561032c57600080fd5b81019080803573ffffffffffffffffffffffffffffffffffffffff169060200190929190803590602001909291908035906020019064010000000081111561037357600080fd5b82018360208201111561038557600080fd5b803590602001918460018302840111640100000000831117156103a757600080fd5b9091929391929390505050610d12565b005b610405600480360360408110156103cf57600080fd5b81019080803573ffffffffffffffffffffffffffffffffffffffff169060200190929190803590602001909291905050506111e2565b604051808873ffffffffffffffffffffffffffffffffffffffff1681526020018773ffffffffffffffffffffffffffffffffffffffff16815260200186815260200185815260200184815260200183815260200182815260200197505050505050505060405180910390f35b61053c600480360360a081101561048757600080fd5b81019080803573ffffffffffffffffffffffffffffffffffffffff169060200190929190803573ffffffffffffffffffffffffffffffffffffffff1690602001909291908035906020019092919080359060200190929190803590602001906401000000008111156104f857600080fd5b82018360208201111561050a57600080fd5b8035906020019184600183028401116401000000008311171561052c57600080fd5b9091929391929390505050611271565b005b6105c8600480360360c081101561055457600080fd5b81019080803573ffffffffffffffffffffffffffffffffffffffff16906020019092919080359060200190929190803590602001909291908035906020019092919080359060200190929190803573ffffffffffffffffffffffffffffffffffffffff169060200190929190505050611921565b005b6105d2611dfd565b005b610620600480360360408110156105ea57600080fd5b81019080803573ffffffffffffffffffffffffffffffffffffffff16906020019092919080359060200190929190505050611f88565b604051808273ffffffffffffffffffffffffffffffffffffffff16815260200191505060405180910390f35b610654611fd3565b604051808273ffffffffffffffffffffffffffffffffffffffff16815260200191505060405180910390f35b6106c26004803603602081101561069657600080fd5b81019080803573ffffffffffffffffffffffffffffffffffffffff169060200190929190505050611ffd565b005b600460009054906101000a900473ffffffffffffffffffffffffffffffffffffffff1681565b6000600260008473ffffffffffffffffffffffffffffffffffffffff1673ffffffffffffffffffffffffffffffffffffffff168152602001908152602001600020600083815260200190815260200160002090503373ffffffffffffffffffffffffffffffffffffffff168160000160009054906101000a900473ffffffffffffffffffffffffffffffffffffffff1673ffffffffffffffffffffffffffffffffffffffff1614610803576040517f08c379a000000000000000000000000000000000000000000000000000000000815260040180806020018281038252600a8152602001807f6e6f74206c656e6465720000000000000000000000000000000000000000000081525060200191505060405180910390fd5b8273ffffffffffffffffffffffffffffffffffffffff166342842e0e308360000160009054906101000a900473ffffffffffffffffffffffffffffffffffffffff16856040518463ffffffff1660e01b8152600401808473ffffffffffffffffffffffffffffffffffffffff1681526020018373ffffffffffffffffffffffffffffffffffffffff1681526020018281526020019350505050600060405180830381600087803b1580156108b657600080fd5b505af11580156108ca573d6000803e3d6000fd5b50505050505050565b600063150b7a0260e01b9050949350505050565b60026000541415610960576040517f08c379a000000000000000000000000000000000000000000000000000000000815260040180806020018281038252601f8152602001807f5265656e7472616e637947756172643a207265656e7472616e742063616c6c0081525060200191505060405180910390fd5b60026000819055506000600260008673ffffffffffffffffffffffffffffffffffffffff1673ffffffffffffffffffffffffffffffffffffffff168152602001908152602001600020600085815260200190815260200160002090503373ffffffffffffffffffffffffffffffffffffffff168160000160009054906101000a900473ffffffffffffffffffffffffffffffffffffffff1673ffffffffffffffffffffffffffffffffffffffff1614610a81576040517f08c379a000000000000000000000000000000000000000000000000000000000815260040180806020018281038252600a8152602001807f6e6f74206c656e6465720000000000000000000000000000000000000000000081525060200191505060405180910390fd5b600073ffffffffffffffffffffffffffffffffffffffff168160010160009054906101000a900473ffffffffffffffffffffffffffffffffffffffff1673ffffffffffffffffffffffffffffffffffffffff161415610b48576040517f08c379a00000000000000000000000000000000000000000000000000000000081526004018080602001828103825260108152602001807f6e6674206e6f74206c656e74206f75740000000000000000000000000000000081525060200191505060405180910390fd5b6000610b7662015180610b6884600501544261220d90919063ffffffff16565b61225790919063ffffffff16565b905081600301548111610bf1576040517f08c379a00000000000000000000000000000000000000000000000000000000081526004018080602001828103825260158152602001807f6475726174696f6e206e6f74206578636565646564000000000000000000000081525060200191505060405180910390fd5b610bfa826122a1565b610d02338360060154600460009054906101000a900473ffffffffffffffffffffffffffffffffffffffff1673ffffffffffffffffffffffffffffffffffffffff16637fe1dc7e88886040518363ffffffff1660e01b815260040180806020018281038252848482818152602001925080828437600081840152601f19601f820116905080830192505050935050505060206040518083038186803b158015610ca257600080fd5b505afa158015610cb6573d6000803e3d6000fd5b505050506040513d6020811015610ccc57600080fd5b810190808051906020019092919050505073ffffffffffffffffffffffffffffffffffffffff166122fc9092919063ffffffff16565b5050600160008190555050505050565b60026000541415610d8b576040517f08c379a000000000000000000000000000000000000000000000000000000000815260040180806020018281038252601f8152602001807f5265656e7472616e637947756172643a207265656e7472616e742063616c6c0081525060200191505060405180910390fd5b60026000819055506000600260008673ffffffffffffffffffffffffffffffffffffffff1673ffffffffffffffffffffffffffffffffffffffff168152602001908152602001600020600085815260200190815260200160002090503373ffffffffffffffffffffffffffffffffffffffff168160010160009054906101000a900473ffffffffffffffffffffffffffffffffffffffff1673ffffffffffffffffffffffffffffffffffffffff1614610eac576040517f08c379a000000000000000000000000000000000000000000000000000000000815260040180806020018281038252600c8152602001807f6e6f7420626f72726f776572000000000000000000000000000000000000000081525060200191505060405180910390fd5b6000610eda62015180610ecc84600501544261220d90919063ffffffff16565b61225790919063ffffffff16565b90508160030154811115610f56576040517f08c379a00000000000000000000000000000000000000000000000000000000081526004018080602001828103825260118152602001807f6475726174696f6e20657863656564656400000000000000000000000000000081525060200191505060405180910390fd5b8573ffffffffffffffffffffffffffffffffffffffff166342842e0e3330886040518463ffffffff1660e01b8152600401808473ffffffffffffffffffffffffffffffffffffffff1681526020018373ffffffffffffffffffffffffffffffffffffffff1681526020018281526020019350505050600060405180830381600087803b158015610fe557600080fd5b505af1158015610ff9573d6000803e3d6000fd5b505050506111298260010160009054906101000a900473ffffffffffffffffffffffffffffffffffffffff168360060154600460009054906101000a900473ffffffffffffffffffffffffffffffffffffffff1673ffffffffffffffffffffffffffffffffffffffff16637fe1dc7e88886040518363ffffffff1660e01b815260040180806020018281038252848482818152602001925080828437600081840152601f19601f820116905080830192505050935050505060206040518083038186803b1580156110c957600080fd5b505afa1580156110dd573d6000803e3d6000fd5b505050506040513d60208110156110f357600080fd5b810190808051906020019092919050505073ffffffffffffffffffffffffffffffffffffffff166122fc9092919063ffffffff16565b611132826122a1565b3373ffffffffffffffffffffffffffffffffffffffff16858773ffffffffffffffffffffffffffffffffffffffff167fb2daed44d220268da5ecf61100cc83480155f3f45250961b09cb82061f5f27fc8560000160009054906101000a900473ffffffffffffffffffffffffffffffffffffffff16604051808273ffffffffffffffffffffffffffffffffffffffff16815260200191505060405180910390a45050600160008190555050505050565b6002602052816000526040600020602052806000526040600020600091509150508060000160009054906101000a900473ffffffffffffffffffffffffffffffffffffffff16908060010160009054906101000a900473ffffffffffffffffffffffffffffffffffffffff16908060020154908060030154908060040154908060050154908060060154905087565b600260005414156112ea576040517f08c379a000000000000000000000000000000000000000000000000000000000815260040180806020018281038252601f8152602001807f5265656e7472616e637947756172643a207265656e7472616e742063616c6c0081525060200191505060405180910390fd5b60026000819055506000600260008773ffffffffffffffffffffffffffffffffffffffff1673ffffffffffffffffffffffffffffffffffffffff16815260200190815260200160002060008681526020019081526020016000209050600073ffffffffffffffffffffffffffffffffffffffff168160000160009054906101000a900473ffffffffffffffffffffffffffffffffffffffff1673ffffffffffffffffffffffffffffffffffffffff16141561140d576040517f08c379a00000000000000000000000000000000000000000000000000000000081526004018080602001828103825260158152602001807f636f756c64206e6f742066696e6420616e204e4654000000000000000000000081525060200191505060405180910390fd5b8060000160009054906101000a900473ffffffffffffffffffffffffffffffffffffffff1673ffffffffffffffffffffffffffffffffffffffff168773ffffffffffffffffffffffffffffffffffffffff1614156114d3576040517f08c379a00000000000000000000000000000000000000000000000000000000081526004018080602001828103825260148152602001807f63616e277420626f72726f77206f776e206e667400000000000000000000000081525060200191505060405180910390fd5b806002015484111561154d576040517f08c379a00000000000000000000000000000000000000000000000000000000081526004018080602001828103825260158152602001807f4d6178204475726174696f6e206578636565646564000000000000000000000081525060200191505060405180910390fd5b61165787308360060154600460009054906101000a900473ffffffffffffffffffffffffffffffffffffffff1673ffffffffffffffffffffffffffffffffffffffff16637fe1dc7e88886040518363ffffffff1660e01b815260040180806020018281038252848482818152602001925080828437600081840152601f19601f820116905080830192505050935050505060206040518083038186803b1580156115f657600080fd5b505afa15801561160a573d6000803e3d6000fd5b505050506040513d602081101561162057600080fd5b810190808051906020019092919050505073ffffffffffffffffffffffffffffffffffffffff1661239e909392919063ffffffff16565b86600260008873ffffffffffffffffffffffffffffffffffffffff1673ffffffffffffffffffffffffffffffffffffffff168152602001908152602001600020600087815260200190815260200160002060010160006101000a81548173ffffffffffffffffffffffffffffffffffffffff021916908373ffffffffffffffffffffffffffffffffffffffff16021790555042600260008873ffffffffffffffffffffffffffffffffffffffff1673ffffffffffffffffffffffffffffffffffffffff16815260200190815260200160002060008781526020019081526020016000206005018190555083600260008873ffffffffffffffffffffffffffffffffffffffff1673ffffffffffffffffffffffffffffffffffffffff1681526020019081526020016000206000878152602001908152602001600020600301819055508573ffffffffffffffffffffffffffffffffffffffff166342842e0e3089886040518463ffffffff1660e01b8152600401808473ffffffffffffffffffffffffffffffffffffffff1681526020018373ffffffffffffffffffffffffffffffffffffffff1681526020018281526020019350505050600060405180830381600087803b15801561182857600080fd5b505af115801561183c573d6000803e3d6000fd5b505050508673ffffffffffffffffffffffffffffffffffffffff16858773ffffffffffffffffffffffffffffffffffffffff167f5c19f9cdfeed52e21a75a98d68d8ac9a91a8311e9d68a8c6886134ee8df784b28460000160009054906101000a900473ffffffffffffffffffffffffffffffffffffffff168560050154866004015487600301548860060154604051808673ffffffffffffffffffffffffffffffffffffffff1681526020018581526020018481526020018381526020018281526020019550505050505060405180910390a4506001600081905550505050505050565b6002600054141561199a576040517f08c379a000000000000000000000000000000000000000000000000000000000815260040180806020018281038252601f8152602001807f5265656e7472616e637947756172643a207265656e7472616e742063616c6c0081525060200191505060405180910390fd5b6002600081905550600073ffffffffffffffffffffffffffffffffffffffff168673ffffffffffffffffffffffffffffffffffffffff161415611a45576040517f08c379a00000000000000000000000000000000000000000000000000000000081526004018080602001828103825260138152602001807f696e76616c6964204e465420616464726573730000000000000000000000000081525060200191505060405180910390fd5b60008411611abb576040517f08c379a00000000000000000000000000000000000000000000000000000000081526004018080602001828103825260108152602001807f6174206c65617374206f6e65206461790000000000000000000000000000000081525060200191505060405180910390fd5b6040518060e001604052803373ffffffffffffffffffffffffffffffffffffffff168152602001600073ffffffffffffffffffffffffffffffffffffffff168152602001858152602001600081526020018481526020016000815260200183815250600260008873ffffffffffffffffffffffffffffffffffffffff1673ffffffffffffffffffffffffffffffffffffffff168152602001908152602001600020600087815260200190815260200160002060008201518160000160006101000a81548173ffffffffffffffffffffffffffffffffffffffff021916908373ffffffffffffffffffffffffffffffffffffffff16021790555060208201518160010160006101000a81548173ffffffffffffffffffffffffffffffffffffffff021916908373ffffffffffffffffffffffffffffffffffffffff16021790555060408201518160020155606082015181600301556080820151816004015560a0820151816005015560c082015181600601559050508573ffffffffffffffffffffffffffffffffffffffff166342842e0e3330886040518463ffffffff1660e01b8152600401808473ffffffffffffffffffffffffffffffffffffffff1681526020018373ffffffffffffffffffffffffffffffffffffffff1681526020018281526020019350505050600060405180830381600087803b158015611cbf57600080fd5b505af1158015611cd3573d6000803e3d6000fd5b50505050600360003373ffffffffffffffffffffffffffffffffffffffff1673ffffffffffffffffffffffffffffffffffffffff168152602001908152602001600020819080600181540180825580915050600190039060005260206000200160009091909190916101000a81548173ffffffffffffffffffffffffffffffffffffffff021916908373ffffffffffffffffffffffffffffffffffffffff1602179055503373ffffffffffffffffffffffffffffffffffffffff16858773ffffffffffffffffffffffffffffffffffffffff167fca96363ba8a9ac89bc9c5919c129b43f11b81545f4e52364a0bd3744fb0f6f0887878760405180848152602001838152602001828152602001935050505060405180910390a46001600081905550505050505050565b611e0561245f565b73ffffffffffffffffffffffffffffffffffffffff16600160009054906101000a900473ffffffffffffffffffffffffffffffffffffffff1673ffffffffffffffffffffffffffffffffffffffff1614611ec7576040517f08c379a00000000000000000000000000000000000000000000000000000000081526004018080602001828103825260208152602001807f4f776e61626c653a2063616c6c6572206973206e6f7420746865206f776e657281525060200191505060405180910390fd5b600073ffffffffffffffffffffffffffffffffffffffff16600160009054906101000a900473ffffffffffffffffffffffffffffffffffffffff1673ffffffffffffffffffffffffffffffffffffffff167f8be0079c531659141344cd1fd0a4f28419497f9722a3daafe3b4186f6b6457e060405160405180910390a36000600160006101000a81548173ffffffffffffffffffffffffffffffffffffffff021916908373ffffffffffffffffffffffffffffffffffffffff160217905550565b60036020528160005260406000208181548110611fa157fe5b906000526020600020016000915091509054906101000a900473ffffffffffffffffffffffffffffffffffffffff1681565b6000600160009054906101000a900473ffffffffffffffffffffffffffffffffffffffff16905090565b61200561245f565b73ffffffffffffffffffffffffffffffffffffffff16600160009054906101000a900473ffffffffffffffffffffffffffffffffffffffff1673ffffffffffffffffffffffffffffffffffffffff16146120c7576040517f08c379a00000000000000000000000000000000000000000000000000000000081526004018080602001828103825260208152602001807f4f776e61626c653a2063616c6c6572206973206e6f7420746865206f776e657281525060200191505060405180910390fd5b600073ffffffffffffffffffffffffffffffffffffffff168173ffffffffffffffffffffffffffffffffffffffff16141561214d576040517f08c379a00000000000000000000000000000000000000000000000000000000081526004018080602001828103825260268152602001806129466026913960400191505060405180910390fd5b8073ffffffffffffffffffffffffffffffffffffffff16600160009054906101000a900473ffffffffffffffffffffffffffffffffffffffff1673ffffffffffffffffffffffffffffffffffffffff167f8be0079c531659141344cd1fd0a4f28419497f9722a3daafe3b4186f6b6457e060405160405180910390a380600160006101000a81548173ffffffffffffffffffffffffffffffffffffffff021916908373ffffffffffffffffffffffffffffffffffffffff16021790555050565b600061224f83836040518060400160405280601e81526020017f536166654d6174683a207375627472616374696f6e206f766572666c6f770000815250612467565b905092915050565b600061229983836040518060400160405280601a81526020017f536166654d6174683a206469766973696f6e206279207a65726f000000000000815250612527565b905092915050565b60008160010160006101000a81548173ffffffffffffffffffffffffffffffffffffffff021916908373ffffffffffffffffffffffffffffffffffffffff160217905550600081600301819055506000816005018190555050565b6123998363a9059cbb60e01b8484604051602401808373ffffffffffffffffffffffffffffffffffffffff16815260200182815260200192505050604051602081830303815290604052907bffffffffffffffffffffffffffffffffffffffffffffffffffffffff19166020820180517bffffffffffffffffffffffffffffffffffffffffffffffffffffffff83818316178352505050506125ed565b505050565b612459846323b872dd60e01b858585604051602401808473ffffffffffffffffffffffffffffffffffffffff1681526020018373ffffffffffffffffffffffffffffffffffffffff1681526020018281526020019350505050604051602081830303815290604052907bffffffffffffffffffffffffffffffffffffffffffffffffffffffff19166020820180517bffffffffffffffffffffffffffffffffffffffffffffffffffffffff83818316178352505050506125ed565b50505050565b600033905090565b6000838311158290612514576040517f08c379a00000000000000000000000000000000000000000000000000000000081526004018080602001828103825283818151815260200191508051906020019080838360005b838110156124d95780820151818401526020810190506124be565b50505050905090810190601f1680156125065780820380516001836020036101000a031916815260200191505b509250505060405180910390fd5b5060008385039050809150509392505050565b600080831182906125d3576040517f08c379a00000000000000000000000000000000000000000000000000000000081526004018080602001828103825283818151815260200191508051906020019080838360005b8381101561259857808201518184015260208101905061257d565b50505050905090810190601f1680156125c55780820380516001836020036101000a031916815260200191505b509250505060405180910390fd5b5060008385816125df57fe5b049050809150509392505050565b606061264f826040518060400160405280602081526020017f5361666545524332303a206c6f772d6c6576656c2063616c6c206661696c65648152508573ffffffffffffffffffffffffffffffffffffffff166126dc9092919063ffffffff16565b90506000815111156126d75780806020019051602081101561267057600080fd5b81019080805190602001909291905050506126d6576040517f08c379a000000000000000000000000000000000000000000000000000000000815260040180806020018281038252602a81526020018061296c602a913960400191505060405180910390fd5b5b505050565b60606126eb84846000856126f4565b90509392505050565b60606126ff856128fa565b612771576040517f08c379a000000000000000000000000000000000000000000000000000000000815260040180806020018281038252601d8152602001807f416464726573733a2063616c6c20746f206e6f6e2d636f6e747261637400000081525060200191505060405180910390fd5b600060608673ffffffffffffffffffffffffffffffffffffffff1685876040518082805190602001908083835b602083106127c1578051825260208201915060208101905060208303925061279e565b6001836020036101000a03801982511681845116808217855250505050505090500191505060006040518083038185875af1925050503d8060008114612823576040519150601f19603f3d011682016040523d82523d6000602084013e612828565b606091505b5091509150811561283d5780925050506128f2565b6000815111156128505780518082602001fd5b836040517f08c379a00000000000000000000000000000000000000000000000000000000081526004018080602001828103825283818151815260200191508051906020019080838360005b838110156128b757808201518184015260208101905061289c565b50505050905090810190601f1680156128e45780820380516001836020036101000a031916815260200191505b509250505060405180910390fd5b949350505050565b60008060007fc5d2460186f7233c927e7db2dcc703c0e500b653ca82273b7bfad8045d85a47060001b9050833f915080821415801561293c57506000801b8214155b9250505091905056fe4f776e61626c653a206e6577206f776e657220697320746865207a65726f20616464726573735361666545524332303a204552433230206f7065726174696f6e20646964206e6f742073756363656564a2646970667358221220a4865042b49c70d41c8174cd9355f52262879839a7c34ad8bc12895090ffb05464736f6c63430007010033",
  "immutableReferences": {},
  "source": "// SPDX-License-Identifier: MIT\npragma solidity ^0.7.0;\n\nimport \"./RentNftAddressProvider.sol\";\nimport \"@openzeppelin/contracts/utils/ReentrancyGuard.sol\";\nimport \"@openzeppelin/contracts/access/Ownable.sol\";\nimport \"@openzeppelin/contracts/token/ERC20/SafeERC20.sol\";\nimport \"@openzeppelin/contracts/token/ERC20/ERC20.sol\";\nimport \"@openzeppelin/contracts/token/ERC721/ERC721.sol\";\nimport \"@openzeppelin/contracts/token/ERC721/ERC721Holder.sol\";\n\ncontract RentNft is ReentrancyGuard, Ownable, ERC721Holder {\n  using SafeMath for uint256;\n  using SafeERC20 for ERC20;\n\n  // TODO: if thre are defaults, mark the address to forbid from renting\n  event Lent(\n    address indexed nftAddress,\n    uint256 indexed tokenId,\n    address indexed lender,\n    uint256 maxDuration,\n    uint256 borrowPrice,\n    uint256 nftPrice\n  );\n\n  event Borrowed(\n    address indexed nftAddress,\n    uint256 indexed tokenId,\n    address indexed borrower,\n    address lender,\n    uint256 borrowedAt,\n    uint256 borrowPrice,\n    uint256 actualDuration,\n    uint256 nftPrice\n  );\n\n  event Returned(\n    address indexed nftAddress,\n    uint256 indexed tokenId,\n    address indexed borrower,\n    address lender\n  );\n\n  struct Nft {\n    address lender;\n    address borrower;\n    uint256 maxDuration; // set by lender. max borrow duration in days\n    uint256 actualDuration; // set by borrower. actual duration borrower will have the NFT for. This gets populated on the rent call\n    uint256 borrowPrice; // set by lender. how much the borrower has to pay irrevocably daily\n    uint256 borrowedAt; // set by borrower. time at which nft is borrowed\n    uint256 nftPrice; // set by lender. how much lender will receive as collateral if borrower does not return nft in time\n  }\n\n  mapping(address => mapping(uint256 => Nft)) public nfts;\n  mapping(address => address[]) public lenderCashflows;\n\n  RentNftAddressProvider public resolver;\n\n  constructor(address _resolver) {\n    resolver = RentNftAddressProvider(_resolver);\n  }\n\n  function onERC721Received(\n    address,\n    address,\n    uint256,\n    bytes memory\n  ) public virtual override returns (bytes4) {\n    return this.onERC721Received.selector;\n  }\n\n  // todo: limitation: cashflow addreses are only appended, they are never removed\n  function lendOne(\n    address _nftAddress,\n    uint256 _tokenId,\n    uint256 _maxDuration,\n    uint256 _borrowPrice,\n    uint256 _nftPrice,\n    address _cashflowAddress\n  ) public nonReentrant {\n    require(_nftAddress != address(0), \"invalid NFT address\");\n    require(_maxDuration > 0, \"at least one day\");\n\n    nfts[_nftAddress][_tokenId] = Nft({\n      lender: msg.sender,\n      borrower: address(0),\n      maxDuration: _maxDuration,\n      actualDuration: 0,\n      borrowPrice: _borrowPrice,\n      borrowedAt: 0,\n      nftPrice: _nftPrice\n    });\n\n    // transfer nft to this contract. will fail if nft wasn't approved\n    // this transfers the GanFace but not the TradeableCashflow\n    ERC721(_nftAddress).safeTransferFrom(msg.sender, address(this), _tokenId);\n    lenderCashflows[msg.sender].push(_cashflowAddress);\n\n    emit Lent(\n      _nftAddress,\n      _tokenId,\n      msg.sender,\n      _maxDuration,\n      _borrowPrice,\n      _nftPrice\n    );\n  }\n\n  function rentOne(\n    address _borrower,\n    address _nftAddress,\n    uint256 _tokenId,\n    uint256 _actualDuration,\n    bytes calldata _token // token in which the rent is paid\n  ) public nonReentrant {\n    Nft storage nft = nfts[_nftAddress][_tokenId];\n\n    require(nft.lender != address(0), \"could not find an NFT\");\n    require(_borrower != nft.lender, \"can't borrow own nft\");\n    require(_actualDuration <= nft.maxDuration, \"Max Duration exceeded\");\n\n    // TODO: function here to loop through all of the current borrowers and pick\n    // a receiver for the flow\n\n    // ! will fail if wasn't approved\n    // pay the NFT owner the rent price\n    // * the borrow amounts are not paid into the streemable NFT\n    // uint256 rentPrice = _actualDuration.mul(nft.borrowPrice);\n    // ERC20(resolver.getToken(_token)).safeTransferFrom(\n    //   _borrower,\n    //   nft.lender,\n    //   rentPrice\n    // );\n    // collateral, our contracts acts as an escrow\n    ERC20(resolver.getToken(_token)).safeTransferFrom(\n      _borrower,\n      address(this),\n      nft.nftPrice\n    );\n\n    nfts[_nftAddress][_tokenId].borrower = _borrower;\n    nfts[_nftAddress][_tokenId].borrowedAt = block.timestamp;\n    nfts[_nftAddress][_tokenId].actualDuration = _actualDuration;\n\n    ERC721(_nftAddress).safeTransferFrom(address(this), _borrower, _tokenId);\n\n    emit Borrowed(\n      _nftAddress,\n      _tokenId,\n      _borrower,\n      nft.lender,\n      nft.borrowedAt,\n      nft.borrowPrice,\n      nft.actualDuration,\n      nft.nftPrice\n    );\n  }\n\n  function returnNftOne(\n    address _nftAddress,\n    uint256 _tokenId,\n    bytes calldata _token\n  ) public nonReentrant {\n    Nft storage nft = nfts[_nftAddress][_tokenId];\n\n    require(nft.borrower == msg.sender, \"not borrower\");\n    uint256 durationInDays = block.timestamp.sub(nft.borrowedAt).div(86400);\n    require(durationInDays <= nft.actualDuration, \"duration exceeded\");\n\n    // we are returning back to the contract so that the owner does not have to add\n    // it multiple times thus incurring the transaction costs\n    ERC721(_nftAddress).safeTransferFrom(msg.sender, address(this), _tokenId);\n    ERC20(resolver.getToken(_token)).safeTransfer(nft.borrower, nft.nftPrice);\n\n    resetBorrow(nft);\n    emit Returned(_nftAddress, _tokenId, msg.sender, nft.lender);\n  }\n\n  function stopLending(address _nftAddress, uint256 _tokenId) public {\n    Nft storage nft = nfts[_nftAddress][_tokenId];\n    require(nft.lender == msg.sender, \"not lender\");\n    ERC721(_nftAddress).safeTransferFrom(address(this), nft.lender, _tokenId);\n  }\n\n  // TODO: onlyOwner method to be called every day at midnight to automatically\n  // default whoever has not returned the NFT in time\n  function claimCollateral(\n    address _nftAddress,\n    uint256 _tokenId,\n    bytes calldata _token\n  ) public nonReentrant {\n    Nft storage nft = nfts[_nftAddress][_tokenId];\n    require(nft.lender == msg.sender, \"not lender\");\n    require(nft.borrower != address(0), \"nft not lent out\");\n\n    uint256 durationInDays = block.timestamp.sub(nft.borrowedAt).div(86400);\n    require(durationInDays > nft.actualDuration, \"duration not exceeded\");\n\n    resetBorrow(nft);\n    ERC20(resolver.getToken(_token)).safeTransfer(msg.sender, nft.nftPrice);\n  }\n\n  function resetBorrow(Nft storage nft) internal {\n    nft.borrower = address(0);\n    nft.actualDuration = 0;\n    nft.borrowedAt = 0;\n  }\n}\n\n// lend multiple nfts that you own to be borrowable by Rent NFT\n// for gas saving\n// function lendMultiple(\n//   address[] calldata _nftAddresses,\n//   uint256[] calldata _tokenIds,\n//   uint256[] calldata _maxDurations,\n//   uint256[] calldata _borrowPrices,\n//   uint256[] calldata _nftPrices\n// ) external {\n//   require(_nftAddresses.length == _tokenIds.length, \"not equal length\");\n//   require(_tokenIds.length == _maxDurations.length, \"not equal length\");\n//   require(_maxDurations.length == _borrowPrices.length, \"not equal length\");\n//   require(_borrowPrices.length == _nftPrices.length, \"not equal length\");\n\n//   for (uint256 i = 0; i < _nftAddresses.length; i++) {\n//     lendOne(\n//       _nftAddresses[i],\n//       _tokenIds[i],\n//       _maxDurations[i],\n//       _borrowPrices[i],\n//       _nftPrices[i]\n//     );\n//   }\n// }\n\n// function rentMultiple(\n//   address _borrower,\n//   address[] calldata _nftAddresses,\n//   uint256[] calldata _tokenIds,\n//   uint256[] calldata _actualDurations,\n//   bytes8[] calldata _tokens\n// ) external {\n//   require(_nftAddresses.length == _tokenIds.length, \"not equal length\");\n//   require(_tokenIds.length == _actualDurations.length, \"not equal length\");\n//   for (uint256 i = 0; i < _nftAddresses.length; i++) {\n//     rentOne(_borrower, _nftAddresses[i], _tokenIds[i], _actualDurations[i], _tokens[i]);\n//   }\n// }\n\n// function returnNftMultiple(\n//   address[] calldata _nftAddresses,\n//   uint256[] calldata _tokenIds,\n//   bytes8[] calldata _token\n// ) external {\n//   require(_nftAddresses.length == _tokenIds.length, \"not equal length\");\n//   for (uint256 i = 0; i < _nftAddresses.length; i++) {\n//     returnNftOne(_nftAddresses[i], _tokenIds[i], _token[i]);\n//   }\n// }\n",
  "sourcePath": "/Users/shredder/git/superfluid/contracts/contracts/RentNft.sol",
  "compiler": {
    "name": "solc",
    "version": "0.7.1+commit.f4a555be.Emscripten.clang"
  },
  "schemaVersion": "3.3.2",
  "updatedAt": "2020-11-13T12:25:38.536Z",
  "networkType": "ethereum",
  "devdoc": {
    "kind": "dev",
    "methods": {
      "onERC721Received(address,address,uint256,bytes)": {
        "details": "See {IERC721Receiver-onERC721Received}. Always returns `IERC721Receiver.onERC721Received.selector`."
      },
      "owner()": {
        "details": "Returns the address of the current owner."
      },
      "renounceOwnership()": {
        "details": "Leaves the contract without owner. It will not be possible to call `onlyOwner` functions anymore. Can only be called by the current owner. NOTE: Renouncing ownership will leave the contract without an owner, thereby removing any functionality that is only available to the owner."
      },
      "transferOwnership(address)": {
        "details": "Transfers ownership of the contract to a new account (`newOwner`). Can only be called by the current owner."
      }
    },
    "version": 1
  },
  "userdoc": {
    "kind": "user",
    "methods": {},
    "version": 1
  }
}