{
  "contractName": "TradeableCashflow",
  "abi": [
    {
      "inputs": [
        {
          "internalType": "address",
          "name": "_owner",
          "type": "address"
        },
        {
          "internalType": "string",
          "name": "_name",
          "type": "string"
        },
        {
          "internalType": "string",
          "name": "_symbol",
          "type": "string"
        },
        {
          "internalType": "contract ISuperfluid",
          "name": "_host",
          "type": "address"
        },
        {
          "internalType": "contract IConstantFlowAgreementV1",
          "name": "_cfa",
          "type": "address"
        },
        {
          "internalType": "contract ISuperToken",
          "name": "_acceptedToken",
          "type": "address"
        }
      ],
      "stateMutability": "nonpayable",
      "type": "constructor"
    },
    {
      "anonymous": false,
      "inputs": [
        {
          "indexed": true,
          "internalType": "address",
          "name": "owner",
          "type": "address"
        },
        {
          "indexed": true,
          "internalType": "address",
          "name": "approved",
          "type": "address"
        },
        {
          "indexed": true,
          "internalType": "uint256",
          "name": "tokenId",
          "type": "uint256"
        }
      ],
      "name": "Approval",
      "type": "event"
    },
    {
      "anonymous": false,
      "inputs": [
        {
          "indexed": true,
          "internalType": "address",
          "name": "owner",
          "type": "address"
        },
        {
          "indexed": true,
          "internalType": "address",
          "name": "operator",
          "type": "address"
        },
        {
          "indexed": false,
          "internalType": "bool",
          "name": "approved",
          "type": "bool"
        }
      ],
      "name": "ApprovalForAll",
      "type": "event"
    },
    {
      "anonymous": false,
      "inputs": [
        {
          "indexed": true,
          "internalType": "address",
          "name": "owner",
          "type": "address"
        },
        {
          "indexed": true,
          "internalType": "uint256",
          "name": "tokenId",
          "type": "uint256"
        },
        {
          "indexed": false,
          "internalType": "string",
          "name": "tokenURI",
          "type": "string"
        }
      ],
      "name": "NewFace",
      "type": "event"
    },
    {
      "anonymous": false,
      "inputs": [
        {
          "indexed": false,
          "internalType": "address",
          "name": "receiver",
          "type": "address"
        }
      ],
      "name": "ReceiverChanged",
      "type": "event"
    },
    {
      "anonymous": false,
      "inputs": [
        {
          "indexed": true,
          "internalType": "address",
          "name": "from",
          "type": "address"
        },
        {
          "indexed": true,
          "internalType": "address",
          "name": "to",
          "type": "address"
        },
        {
          "indexed": true,
          "internalType": "uint256",
          "name": "tokenId",
          "type": "uint256"
        }
      ],
      "name": "Transfer",
      "type": "event"
    },
    {
      "inputs": [
        {
          "internalType": "contract ISuperToken",
          "name": "_superToken",
          "type": "address"
        },
        {
          "internalType": "bytes",
          "name": "_ctx",
          "type": "bytes"
        },
        {
          "internalType": "address",
          "name": "_agreementClass",
          "type": "address"
        },
        {
          "internalType": "bytes32",
          "name": "",
          "type": "bytes32"
        },
        {
          "internalType": "bytes",
          "name": "",
          "type": "bytes"
        }
      ],
      "name": "afterAgreementCreated",
      "outputs": [
        {
          "internalType": "bytes",
          "name": "",
          "type": "bytes"
        }
      ],
      "stateMutability": "nonpayable",
      "type": "function"
    },
    {
      "inputs": [
        {
          "internalType": "contract ISuperToken",
          "name": "_superToken",
          "type": "address"
        },
        {
          "internalType": "bytes",
          "name": "_ctx",
          "type": "bytes"
        },
        {
          "internalType": "address",
          "name": "_agreementClass",
          "type": "address"
        },
        {
          "internalType": "bytes32",
          "name": "",
          "type": "bytes32"
        },
        {
          "internalType": "bytes",
          "name": "",
          "type": "bytes"
        }
      ],
      "name": "afterAgreementTerminated",
      "outputs": [
        {
          "internalType": "bytes",
          "name": "",
          "type": "bytes"
        }
      ],
      "stateMutability": "nonpayable",
      "type": "function"
    },
    {
      "inputs": [
        {
          "internalType": "contract ISuperToken",
          "name": "_superToken",
          "type": "address"
        },
        {
          "internalType": "bytes",
          "name": "_ctx",
          "type": "bytes"
        },
        {
          "internalType": "address",
          "name": "_agreementClass",
          "type": "address"
        },
        {
          "internalType": "bytes32",
          "name": "",
          "type": "bytes32"
        },
        {
          "internalType": "bytes",
          "name": "",
          "type": "bytes"
        }
      ],
      "name": "afterAgreementUpdated",
      "outputs": [
        {
          "internalType": "bytes",
          "name": "",
          "type": "bytes"
        }
      ],
      "stateMutability": "nonpayable",
      "type": "function"
    },
    {
      "inputs": [
        {
          "internalType": "address",
          "name": "to",
          "type": "address"
        },
        {
          "internalType": "uint256",
          "name": "tokenId",
          "type": "uint256"
        }
      ],
      "name": "approve",
      "outputs": [],
      "stateMutability": "nonpayable",
      "type": "function"
    },
    {
      "inputs": [
        {
          "internalType": "address",
          "name": "owner",
          "type": "address"
        }
      ],
      "name": "balanceOf",
      "outputs": [
        {
          "internalType": "uint256",
          "name": "",
          "type": "uint256"
        }
      ],
      "stateMutability": "view",
      "type": "function",
      "constant": true
    },
    {
      "inputs": [],
      "name": "baseURI",
      "outputs": [
        {
          "internalType": "string",
          "name": "",
          "type": "string"
        }
      ],
      "stateMutability": "view",
      "type": "function",
      "constant": true
    },
    {
      "inputs": [
        {
          "internalType": "contract ISuperToken",
          "name": "",
          "type": "address"
        },
        {
          "internalType": "bytes",
          "name": "",
          "type": "bytes"
        },
        {
          "internalType": "address",
          "name": "",
          "type": "address"
        },
        {
          "internalType": "bytes32",
          "name": "",
          "type": "bytes32"
        }
      ],
      "name": "beforeAgreementCreated",
      "outputs": [
        {
          "internalType": "bytes",
          "name": "",
          "type": "bytes"
        }
      ],
      "stateMutability": "view",
      "type": "function",
      "constant": true
    },
    {
      "inputs": [
        {
          "internalType": "contract ISuperToken",
          "name": "",
          "type": "address"
        },
        {
          "internalType": "bytes",
          "name": "",
          "type": "bytes"
        },
        {
          "internalType": "address",
          "name": "",
          "type": "address"
        },
        {
          "internalType": "bytes32",
          "name": "",
          "type": "bytes32"
        }
      ],
      "name": "beforeAgreementTerminated",
      "outputs": [
        {
          "internalType": "bytes",
          "name": "",
          "type": "bytes"
        }
      ],
      "stateMutability": "view",
      "type": "function",
      "constant": true
    },
    {
      "inputs": [
        {
          "internalType": "contract ISuperToken",
          "name": "",
          "type": "address"
        },
        {
          "internalType": "bytes",
          "name": "",
          "type": "bytes"
        },
        {
          "internalType": "address",
          "name": "",
          "type": "address"
        },
        {
          "internalType": "bytes32",
          "name": "",
          "type": "bytes32"
        }
      ],
      "name": "beforeAgreementUpdated",
      "outputs": [
        {
          "internalType": "bytes",
          "name": "",
          "type": "bytes"
        }
      ],
      "stateMutability": "view",
      "type": "function",
      "constant": true
    },
    {
      "inputs": [],
      "name": "currentReceiver",
      "outputs": [
        {
          "internalType": "uint256",
          "name": "",
          "type": "uint256"
        },
        {
          "internalType": "address",
          "name": "",
          "type": "address"
        },
        {
          "internalType": "int96",
          "name": "",
          "type": "int96"
        }
      ],
      "stateMutability": "view",
      "type": "function",
      "constant": true
    },
    {
      "inputs": [
        {
          "internalType": "uint256",
          "name": "tokenId",
          "type": "uint256"
        }
      ],
      "name": "getApproved",
      "outputs": [
        {
          "internalType": "address",
          "name": "",
          "type": "address"
        }
      ],
      "stateMutability": "view",
      "type": "function",
      "constant": true
    },
    {
      "inputs": [
        {
          "internalType": "address",
          "name": "owner",
          "type": "address"
        },
        {
          "internalType": "address",
          "name": "operator",
          "type": "address"
        }
      ],
      "name": "isApprovedForAll",
      "outputs": [
        {
          "internalType": "bool",
          "name": "",
          "type": "bool"
        }
      ],
      "stateMutability": "view",
      "type": "function",
      "constant": true
    },
    {
      "inputs": [],
      "name": "name",
      "outputs": [
        {
          "internalType": "string",
          "name": "",
          "type": "string"
        }
      ],
      "stateMutability": "view",
      "type": "function",
      "constant": true
    },
    {
      "inputs": [
        {
          "internalType": "uint256",
          "name": "tokenId",
          "type": "uint256"
        }
      ],
      "name": "ownerOf",
      "outputs": [
        {
          "internalType": "address",
          "name": "",
          "type": "address"
        }
      ],
      "stateMutability": "view",
      "type": "function",
      "constant": true
    },
    {
      "inputs": [],
      "name": "receiver",
      "outputs": [
        {
          "internalType": "address",
          "name": "",
          "type": "address"
        }
      ],
      "stateMutability": "view",
      "type": "function",
      "constant": true
    },
    {
      "inputs": [
        {
          "internalType": "address",
          "name": "from",
          "type": "address"
        },
        {
          "internalType": "address",
          "name": "to",
          "type": "address"
        },
        {
          "internalType": "uint256",
          "name": "tokenId",
          "type": "uint256"
        }
      ],
      "name": "safeTransferFrom",
      "outputs": [],
      "stateMutability": "nonpayable",
      "type": "function"
    },
    {
      "inputs": [
        {
          "internalType": "address",
          "name": "from",
          "type": "address"
        },
        {
          "internalType": "address",
          "name": "to",
          "type": "address"
        },
        {
          "internalType": "uint256",
          "name": "tokenId",
          "type": "uint256"
        },
        {
          "internalType": "bytes",
          "name": "_data",
          "type": "bytes"
        }
      ],
      "name": "safeTransferFrom",
      "outputs": [],
      "stateMutability": "nonpayable",
      "type": "function"
    },
    {
      "inputs": [
        {
          "internalType": "address",
          "name": "operator",
          "type": "address"
        },
        {
          "internalType": "bool",
          "name": "approved",
          "type": "bool"
        }
      ],
      "name": "setApprovalForAll",
      "outputs": [],
      "stateMutability": "nonpayable",
      "type": "function"
    },
    {
      "inputs": [
        {
          "internalType": "bytes4",
          "name": "interfaceId",
          "type": "bytes4"
        }
      ],
      "name": "supportsInterface",
      "outputs": [
        {
          "internalType": "bool",
          "name": "",
          "type": "bool"
        }
      ],
      "stateMutability": "view",
      "type": "function",
      "constant": true
    },
    {
      "inputs": [],
      "name": "symbol",
      "outputs": [
        {
          "internalType": "string",
          "name": "",
          "type": "string"
        }
      ],
      "stateMutability": "view",
      "type": "function",
      "constant": true
    },
    {
      "inputs": [
        {
          "internalType": "uint256",
          "name": "index",
          "type": "uint256"
        }
      ],
      "name": "tokenByIndex",
      "outputs": [
        {
          "internalType": "uint256",
          "name": "",
          "type": "uint256"
        }
      ],
      "stateMutability": "view",
      "type": "function",
      "constant": true
    },
    {
      "inputs": [
        {
          "internalType": "address",
          "name": "owner",
          "type": "address"
        },
        {
          "internalType": "uint256",
          "name": "index",
          "type": "uint256"
        }
      ],
      "name": "tokenOfOwnerByIndex",
      "outputs": [
        {
          "internalType": "uint256",
          "name": "",
          "type": "uint256"
        }
      ],
      "stateMutability": "view",
      "type": "function",
      "constant": true
    },
    {
      "inputs": [
        {
          "internalType": "uint256",
          "name": "tokenId",
          "type": "uint256"
        }
      ],
      "name": "tokenURI",
      "outputs": [
        {
          "internalType": "string",
          "name": "",
          "type": "string"
        }
      ],
      "stateMutability": "view",
      "type": "function",
      "constant": true
    },
    {
      "inputs": [],
      "name": "totalSupply",
      "outputs": [
        {
          "internalType": "uint256",
          "name": "",
          "type": "uint256"
        }
      ],
      "stateMutability": "view",
      "type": "function",
      "constant": true
    },
    {
      "inputs": [
        {
          "internalType": "address",
          "name": "from",
          "type": "address"
        },
        {
          "internalType": "address",
          "name": "to",
          "type": "address"
        },
        {
          "internalType": "uint256",
          "name": "tokenId",
          "type": "uint256"
        }
      ],
      "name": "transferFrom",
      "outputs": [],
      "stateMutability": "nonpayable",
      "type": "function"
    }
  ],
  "bytecode": "0x60806040523480156200001157600080fd5b5060405162006b2438038062006b24833981810160405260c08110156200003757600080fd5b8101908080519060200190929190805160405193929190846401000000008211156200006257600080fd5b838201915060208201858111156200007957600080fd5b82518660018202830111640100000000821117156200009757600080fd5b8083526020830192505050908051906020019080838360005b83811015620000cd578082015181840152602081019050620000b0565b50505050905090810190601f168015620000fb5780820380516001836020036101000a031916815260200191505b50604052602001805160405193929190846401000000008211156200011f57600080fd5b838201915060208201858111156200013657600080fd5b82518660018202830111640100000000821117156200015457600080fd5b8083526020830192505050908051906020019080838360005b838110156200018a5780820151818401526020810190506200016d565b50505050905090810190601f168015620001b85780820380516001836020036101000a031916815260200191505b50604052602001805190602001909291908051906020019092919080519060200190929190505050828282888888620001fe6301ffc9a760e01b6200063860201b60201c565b81600690805190602001906200021692919062001605565b5080600790805190602001906200022f92919062001605565b50620002486380ac58cd60e01b6200063860201b60201c565b62000260635b5e139f60e01b6200063860201b60201c565b6200027863780e9d6360e01b6200063860201b60201c565b5050600073ffffffffffffffffffffffffffffffffffffffff168473ffffffffffffffffffffffffffffffffffffffff1614156200031e576040517f08c379a000000000000000000000000000000000000000000000000000000000815260040180806020018281038252600b8152602001807f686f7374206973206e696c00000000000000000000000000000000000000000081525060200191505060405180910390fd5b600073ffffffffffffffffffffffffffffffffffffffff168373ffffffffffffffffffffffffffffffffffffffff161415620003c2576040517f08c379a000000000000000000000000000000000000000000000000000000000815260040180806020018281038252600a8152602001807f636661206973206e696c0000000000000000000000000000000000000000000081525060200191505060405180910390fd5b600073ffffffffffffffffffffffffffffffffffffffff168273ffffffffffffffffffffffffffffffffffffffff16141562000466576040517f08c379a00000000000000000000000000000000000000000000000000000000081526004018080602001828103825260158152602001807f616363657074656420746f6b656e206973206e696c000000000000000000000081525060200191505060405180910390fd5b83600a60006101000a81548173ffffffffffffffffffffffffffffffffffffffff021916908373ffffffffffffffffffffffffffffffffffffffff16021790555082600b60006101000a81548173ffffffffffffffffffffffffffffffffffffffff021916908373ffffffffffffffffffffffffffffffffffffffff16021790555081600c60006101000a81548173ffffffffffffffffffffffffffffffffffffffff021916908373ffffffffffffffffffffffffffffffffffffffff16021790555080600d60006101000a81548173ffffffffffffffffffffffffffffffffffffffff021916908373ffffffffffffffffffffffffffffffffffffffff160217905550600064100000000064040000000064010000000060011717179050600a60009054906101000a900473ffffffffffffffffffffffffffffffffffffffff1673ffffffffffffffffffffffffffffffffffffffff1663ad3915c8826040518263ffffffff1660e01b815260040180828152602001915050600060405180830381600087803b158015620005fb57600080fd5b505af115801562000610573d6000803e3d6000fd5b5050505050505050506200062c8660016200074160201b60201c565b505050505050620016ab565b63ffffffff60e01b817bffffffffffffffffffffffffffffffffffffffffffffffffffffffff19161415620006d5576040517f08c379a000000000000000000000000000000000000000000000000000000000815260040180806020018281038252601c8152602001807f4552433136353a20696e76616c696420696e746572666163652069640000000081525060200191505060405180910390fd5b6001600080837bffffffffffffffffffffffffffffffffffffffffffffffffffffffff19167bffffffffffffffffffffffffffffffffffffffffffffffffffffffff1916815260200190815260200160002060006101000a81548160ff02191690831515021790555050565b600073ffffffffffffffffffffffffffffffffffffffff168273ffffffffffffffffffffffffffffffffffffffff161415620007e5576040517f08c379a00000000000000000000000000000000000000000000000000000000081526004018080602001828103825260208152602001807f4552433732313a206d696e7420746f20746865207a65726f206164647265737381525060200191505060405180910390fd5b620007f6816200095560201b60201c565b156200086a576040517f08c379a000000000000000000000000000000000000000000000000000000000815260040180806020018281038252601c8152602001807f4552433732313a20746f6b656e20616c7265616479206d696e7465640000000081525060200191505060405180910390fd5b6200087e600083836200097960201b60201c565b620008d681600160008573ffffffffffffffffffffffffffffffffffffffff1673ffffffffffffffffffffffffffffffffffffffff1681526020019081526020016000206200098f60201b620024fd1790919060201c565b50620008f481836002620009b160201b62002517179092919060201c565b50808273ffffffffffffffffffffffffffffffffffffffff16600073ffffffffffffffffffffffffffffffffffffffff167fddf252ad1be2c89b69c2b068fc378daa952ba7f163c4a11628f55a4df523b3ef60405160405180910390a45050565b600062000972826002620009ee60201b6200254c1790919060201c565b9050919050565b6200098a8262000a1060201b60201c565b505050565b6000620009a9836000018360001b6200146660201b60201c565b905092915050565b6000620009e5846000018460001b8473ffffffffffffffffffffffffffffffffffffffff1660001b620014e060201b60201c565b90509392505050565b600062000a08836000018360001b620015bf60201b60201c565b905092915050565b600073ffffffffffffffffffffffffffffffffffffffff168173ffffffffffffffffffffffffffffffffffffffff16141562000ab4576040517f08c379a000000000000000000000000000000000000000000000000000000000815260040180806020018281038252601c8152602001807f4e6577207265636569766572206973207a65726f20616464726573730000000081525060200191505060405180910390fd5b600d60009054906101000a900473ffffffffffffffffffffffffffffffffffffffff1673ffffffffffffffffffffffffffffffffffffffff168173ffffffffffffffffffffffffffffffffffffffff16141562000b115762001463565b600a60009054906101000a900473ffffffffffffffffffffffffffffffffffffffff1673ffffffffffffffffffffffffffffffffffffffff166361d164d3600b60009054906101000a900473ffffffffffffffffffffffffffffffffffffffff1663b4b333c660e01b600c60009054906101000a900473ffffffffffffffffffffffffffffffffffffffff1630600d60009054906101000a900473ffffffffffffffffffffffffffffffffffffffff16600067ffffffffffffffff8111801562000bda57600080fd5b506040519080825280601f01601f19166020018201604052801562000c0e5781602001600182028036833780820191505090505b50604051602401808573ffffffffffffffffffffffffffffffffffffffff1681526020018473ffffffffffffffffffffffffffffffffffffffff1681526020018373ffffffffffffffffffffffffffffffffffffffff16815260200180602001828103825283818151815260200191508051906020019080838360005b8381101562000ca857808201518184015260208101905062000c8b565b50505050905090810190601f16801562000cd65780820380516001836020036101000a031916815260200191505b5095505050505050604051602081830303815290604052907bffffffffffffffffffffffffffffffffffffffffffffffffffffffff19166020820180517bffffffffffffffffffffffffffffffffffffffffffffffffffffffff83818316178352505050506040518363ffffffff1660e01b8152600401808373ffffffffffffffffffffffffffffffffffffffff16815260200180602001828103825283818151815260200191508051906020019080838360005b8381101562000da857808201518184015260208101905062000d8b565b50505050905090810190601f16801562000dd65780820380516001836020036101000a031916815260200191505b509350505050600060405180830381600087803b15801562000df757600080fd5b505af115801562000e0c573d6000803e3d6000fd5b505050506040513d6000823e3d601f19601f82011682018060405250602081101562000e3757600080fd5b810190808051604051939291908464010000000082111562000e5857600080fd5b8382019150602082018581111562000e6f57600080fd5b825186600182028301116401000000008211171562000e8d57600080fd5b8083526020830192505050908051906020019080838360005b8381101562000ec357808201518184015260208101905062000ea6565b50505050905090810190601f16801562000ef15780820380516001836020036101000a031916815260200191505b5060405250505050600a60009054906101000a900473ffffffffffffffffffffffffffffffffffffffff1673ffffffffffffffffffffffffffffffffffffffff166361d164d3600b60009054906101000a900473ffffffffffffffffffffffffffffffffffffffff166362fc305e60e01b600c60009054906101000a900473ffffffffffffffffffffffffffffffffffffffff1685600b60009054906101000a900473ffffffffffffffffffffffffffffffffffffffff1673ffffffffffffffffffffffffffffffffffffffff1663e8e7e2d1600c60009054906101000a900473ffffffffffffffffffffffffffffffffffffffff16306040518363ffffffff1660e01b8152600401808373ffffffffffffffffffffffffffffffffffffffff1681526020018273ffffffffffffffffffffffffffffffffffffffff1681526020019250505060206040518083038186803b1580156200105057600080fd5b505afa15801562001065573d6000803e3d6000fd5b505050506040513d60208110156200107c57600080fd5b8101908080519060200190929190505050600067ffffffffffffffff81118015620010a657600080fd5b506040519080825280601f01601f191660200182016040528015620010da5781602001600182028036833780820191505090505b50604051602401808573ffffffffffffffffffffffffffffffffffffffff1681526020018473ffffffffffffffffffffffffffffffffffffffff16815260200183600b0b815260200180602001828103825283818151815260200191508051906020019080838360005b838110156200116157808201518184015260208101905062001144565b50505050905090810190601f1680156200118f5780820380516001836020036101000a031916815260200191505b5095505050505050604051602081830303815290604052907bffffffffffffffffffffffffffffffffffffffffffffffffffffffff19166020820180517bffffffffffffffffffffffffffffffffffffffffffffffffffffffff83818316178352505050506040518363ffffffff1660e01b8152600401808373ffffffffffffffffffffffffffffffffffffffff16815260200180602001828103825283818151815260200191508051906020019080838360005b838110156200126157808201518184015260208101905062001244565b50505050905090810190601f1680156200128f5780820380516001836020036101000a031916815260200191505b509350505050600060405180830381600087803b158015620012b057600080fd5b505af1158015620012c5573d6000803e3d6000fd5b505050506040513d6000823e3d601f19601f820116820180604052506020811015620012f057600080fd5b81019080805160405193929190846401000000008211156200131157600080fd5b838201915060208201858111156200132857600080fd5b82518660018202830111640100000000821117156200134657600080fd5b8083526020830192505050908051906020019080838360005b838110156200137c5780820151818401526020810190506200135f565b50505050905090810190601f168015620013aa5780820380516001836020036101000a031916815260200191505b506040525050505080600d60006101000a81548173ffffffffffffffffffffffffffffffffffffffff021916908373ffffffffffffffffffffffffffffffffffffffff1602179055507f7dfb1d59db37a3fd2e15e796c189dcab714cdbb18650d68a1de58f8fa60718c9600d60009054906101000a900473ffffffffffffffffffffffffffffffffffffffff16604051808273ffffffffffffffffffffffffffffffffffffffff16815260200191505060405180910390a15b50565b60006200147a8383620015e260201b60201c565b620014d5578260000182908060018154018082558091505060019003906000526020600020016000909190919091505582600001805490508360010160008481526020019081526020016000208190555060019050620014da565b600090505b92915050565b60008084600101600085815260200190815260200160002054905060008114156200158957846000016040518060400160405280868152602001858152509080600181540180825580915050600190039060005260206000209060020201600090919091909150600082015181600001556020820151816001015550508460000180549050856001016000868152602001908152602001600020819055506001915050620015b8565b828560000160018303815481106200159d57fe5b90600052602060002090600202016001018190555060009150505b9392505050565b600080836001016000848152602001908152602001600020541415905092915050565b600080836001016000848152602001908152602001600020541415905092915050565b828054600181600116156101000203166002900490600052602060002090601f016020900481019282601f106200164857805160ff191683800117855562001679565b8280016001018555821562001679579182015b82811115620016785782518255916020019190600101906200165b565b5b5090506200168891906200168c565b5090565b5b80821115620016a75760008160009055506001016200168d565b5090565b61546980620016bb6000396000f3fe608060405234801561001057600080fd5b50600436106101735760003560e01c80636352211e116100de578063bd2da4a311610097578063d002c9a511610071578063d002c9a514610dde578063da37411e14610f6f578063e985e9c514611100578063f7260d3e1461117a57610173565b8063bd2da4a314610a6a578063be6baf9b14610ba6578063c87b56dd14610d3757610173565b80636352211e1461075f5780636c0360eb146107b757806370a082311461083a57806395d89b4114610892578063a22cb46514610915578063b88d4fde1461096557610173565b806323b872dd1161013057806323b872dd1461045e57806328d2bf94146104cc5780632d9c9338146105115780632f745c591461064d57806342842e0e146106af5780634f6ccce71461071d57610173565b806301ffc9a71461017857806306fdde03146101db578063081812fc1461025e578063095ea7b3146102b657806317dd68ce1461030457806318160ddd14610440575b600080fd5b6101c36004803603602081101561018e57600080fd5b8101908080357bffffffffffffffffffffffffffffffffffffffffffffffffffffffff191690602001909291905050506111ae565b60405180821515815260200191505060405180910390f35b6101e3611215565b6040518080602001828103825283818151815260200191508051906020019080838360005b83811015610223578082015181840152602081019050610208565b50505050905090810190601f1680156102505780820380516001836020036101000a031916815260200191505b509250505060405180910390f35b61028a6004803603602081101561027457600080fd5b81019080803590602001909291905050506112b7565b604051808273ffffffffffffffffffffffffffffffffffffffff16815260200191505060405180910390f35b610302600480360360408110156102cc57600080fd5b81019080803573ffffffffffffffffffffffffffffffffffffffff16906020019092919080359060200190929190505050611352565b005b6103c56004803603608081101561031a57600080fd5b81019080803573ffffffffffffffffffffffffffffffffffffffff1690602001909291908035906020019064010000000081111561035757600080fd5b82018360208201111561036957600080fd5b8035906020019184600183028401116401000000008311171561038b57600080fd5b9091929391929390803573ffffffffffffffffffffffffffffffffffffffff16906020019092919080359060200190929190505050611496565b6040518080602001828103825283818151815260200191508051906020019080838360005b838110156104055780820151818401526020810190506103ea565b50505050905090810190601f1680156104325780820380516001836020036101000a031916815260200191505b509250505060405180910390f35b6104486114e9565b6040518082815260200191505060405180910390f35b6104ca6004803603606081101561047457600080fd5b81019080803573ffffffffffffffffffffffffffffffffffffffff169060200190929190803573ffffffffffffffffffffffffffffffffffffffff169060200190929190803590602001909291905050506114fa565b005b6104d4611570565b604051808481526020018373ffffffffffffffffffffffffffffffffffffffff16815260200182600b0b8152602001935050505060405180910390f35b6105d26004803603608081101561052757600080fd5b81019080803573ffffffffffffffffffffffffffffffffffffffff1690602001909291908035906020019064010000000081111561056457600080fd5b82018360208201111561057657600080fd5b8035906020019184600183028401116401000000008311171561059857600080fd5b9091929391929390803573ffffffffffffffffffffffffffffffffffffffff16906020019092919080359060200190929190505050611712565b6040518080602001828103825283818151815260200191508051906020019080838360005b838110156106125780820151818401526020810190506105f7565b50505050905090810190601f16801561063f5780820380516001836020036101000a031916815260200191505b509250505060405180910390f35b6106996004803603604081101561066357600080fd5b81019080803573ffffffffffffffffffffffffffffffffffffffff16906020019092919080359060200190929190505050611765565b6040518082815260200191505060405180910390f35b61071b600480360360608110156106c557600080fd5b81019080803573ffffffffffffffffffffffffffffffffffffffff169060200190929190803573ffffffffffffffffffffffffffffffffffffffff169060200190929190803590602001909291905050506117c0565b005b6107496004803603602081101561073357600080fd5b81019080803590602001909291905050506117e0565b6040518082815260200191505060405180910390f35b61078b6004803603602081101561077557600080fd5b8101908080359060200190929190505050611803565b604051808273ffffffffffffffffffffffffffffffffffffffff16815260200191505060405180910390f35b6107bf61183a565b6040518080602001828103825283818151815260200191508051906020019080838360005b838110156107ff5780820151818401526020810190506107e4565b50505050905090810190601f16801561082c5780820380516001836020036101000a031916815260200191505b509250505060405180910390f35b61087c6004803603602081101561085057600080fd5b81019080803573ffffffffffffffffffffffffffffffffffffffff1690602001909291905050506118dc565b6040518082815260200191505060405180910390f35b61089a6119b1565b6040518080602001828103825283818151815260200191508051906020019080838360005b838110156108da5780820151818401526020810190506108bf565b50505050905090810190601f1680156109075780820380516001836020036101000a031916815260200191505b509250505060405180910390f35b6109636004803603604081101561092b57600080fd5b81019080803573ffffffffffffffffffffffffffffffffffffffff169060200190929190803515159060200190929190505050611a53565b005b610a686004803603608081101561097b57600080fd5b81019080803573ffffffffffffffffffffffffffffffffffffffff169060200190929190803573ffffffffffffffffffffffffffffffffffffffff16906020019092919080359060200190929190803590602001906401000000008111156109e257600080fd5b8201836020820111156109f457600080fd5b80359060200191846001830284011164010000000083111715610a1657600080fd5b91908080601f016020809104026020016040519081016040528093929190818152602001838380828437600081840152601f19601f820116905080830192505050505050509192919290505050611c09565b005b610b2b60048036036080811015610a8057600080fd5b81019080803573ffffffffffffffffffffffffffffffffffffffff16906020019092919080359060200190640100000000811115610abd57600080fd5b820183602082011115610acf57600080fd5b80359060200191846001830284011164010000000083111715610af157600080fd5b9091929391929390803573ffffffffffffffffffffffffffffffffffffffff16906020019092919080359060200190929190505050611c81565b6040518080602001828103825283818151815260200191508051906020019080838360005b83811015610b6b578082015181840152602081019050610b50565b50505050905090810190601f168015610b985780820380516001836020036101000a031916815260200191505b509250505060405180910390f35b610cbc600480360360a0811015610bbc57600080fd5b81019080803573ffffffffffffffffffffffffffffffffffffffff16906020019092919080359060200190640100000000811115610bf957600080fd5b820183602082011115610c0b57600080fd5b80359060200191846001830284011164010000000083111715610c2d57600080fd5b9091929391929390803573ffffffffffffffffffffffffffffffffffffffff1690602001909291908035906020019092919080359060200190640100000000811115610c7857600080fd5b820183602082011115610c8a57600080fd5b80359060200191846001830284011164010000000083111715610cac57600080fd5b9091929391929390505050611cd4565b6040518080602001828103825283818151815260200191508051906020019080838360005b83811015610cfc578082015181840152602081019050610ce1565b50505050905090810190601f168015610d295780820380516001836020036101000a031916815260200191505b509250505060405180910390f35b610d6360048036036020811015610d4d57600080fd5b8101908080359060200190929190505050611e22565b6040518080602001828103825283818151815260200191508051906020019080838360005b83811015610da3578082015181840152602081019050610d88565b50505050905090810190601f168015610dd05780820380516001836020036101000a031916815260200191505b509250505060405180910390f35b610ef4600480360360a0811015610df457600080fd5b81019080803573ffffffffffffffffffffffffffffffffffffffff16906020019092919080359060200190640100000000811115610e3157600080fd5b820183602082011115610e4357600080fd5b80359060200191846001830284011164010000000083111715610e6557600080fd5b9091929391929390803573ffffffffffffffffffffffffffffffffffffffff1690602001909291908035906020019092919080359060200190640100000000811115610eb057600080fd5b820183602082011115610ec257600080fd5b80359060200191846001830284011164010000000083111715610ee457600080fd5b909192939192939050505061210b565b6040518080602001828103825283818151815260200191508051906020019080838360005b83811015610f34578082015181840152602081019050610f19565b50505050905090810190601f168015610f615780820380516001836020036101000a031916815260200191505b509250505060405180910390f35b611085600480360360a0811015610f8557600080fd5b81019080803573ffffffffffffffffffffffffffffffffffffffff16906020019092919080359060200190640100000000811115610fc257600080fd5b820183602082011115610fd457600080fd5b80359060200191846001830284011164010000000083111715610ff657600080fd5b9091929391929390803573ffffffffffffffffffffffffffffffffffffffff169060200190929190803590602001909291908035906020019064010000000081111561104157600080fd5b82018360208201111561105357600080fd5b8035906020019184600183028401116401000000008311171561107557600080fd5b90919293919293905050506122a7565b6040518080602001828103825283818151815260200191508051906020019080838360005b838110156110c55780820151818401526020810190506110aa565b50505050905090810190601f1680156110f25780820380516001836020036101000a031916815260200191505b509250505060405180910390f35b6111626004803603604081101561111657600080fd5b81019080803573ffffffffffffffffffffffffffffffffffffffff169060200190929190803573ffffffffffffffffffffffffffffffffffffffff169060200190929190505050612443565b60405180821515815260200191505060405180910390f35b6111826124d7565b604051808273ffffffffffffffffffffffffffffffffffffffff16815260200191505060405180910390f35b6000806000837bffffffffffffffffffffffffffffffffffffffffffffffffffffffff19167bffffffffffffffffffffffffffffffffffffffffffffffffffffffff1916815260200190815260200160002060009054906101000a900460ff169050919050565b606060068054600181600116156101000203166002900480601f0160208091040260200160405190810160405280929190818152602001828054600181600116156101000203166002900480156112ad5780601f10611282576101008083540402835291602001916112ad565b820191906000526020600020905b81548152906001019060200180831161129057829003601f168201915b5050505050905090565b60006112c282612566565b611317576040517f08c379a000000000000000000000000000000000000000000000000000000000815260040180806020018281038252602c815260200180615300602c913960400191505060405180910390fd5b6004600083815260200190815260200160002060009054906101000a900473ffffffffffffffffffffffffffffffffffffffff169050919050565b600061135d82611803565b90508073ffffffffffffffffffffffffffffffffffffffff168373ffffffffffffffffffffffffffffffffffffffff1614156113e4576040517f08c379a00000000000000000000000000000000000000000000000000000000081526004018080602001828103825260218152602001806153846021913960400191505060405180910390fd5b8073ffffffffffffffffffffffffffffffffffffffff16611403612583565b73ffffffffffffffffffffffffffffffffffffffff16148061143257506114318161142c612583565b612443565b5b611487576040517f08c379a00000000000000000000000000000000000000000000000000000000081526004018080602001828103825260388152602001806152536038913960400191505060405180910390fd5b611491838361258b565b505050565b60606040517f08c379a00000000000000000000000000000000000000000000000000000000081526004018080602001828103825260338152602001806151ae6033913960400191505060405180910390fd5b60006114f56002612644565b905090565b61150b611505612583565b82612659565b611560576040517f08c379a00000000000000000000000000000000000000000000000000000000081526004018080602001828103825260318152602001806153d46031913960400191505060405180910390fd5b61156b83838361274d565b505050565b6000806000806000600b60009054906101000a900473ffffffffffffffffffffffffffffffffffffffff1673ffffffffffffffffffffffffffffffffffffffff1663e6a1e888600c60009054906101000a900473ffffffffffffffffffffffffffffffffffffffff1630600d60009054906101000a900473ffffffffffffffffffffffffffffffffffffffff166040518463ffffffff1660e01b8152600401808473ffffffffffffffffffffffffffffffffffffffff1681526020018373ffffffffffffffffffffffffffffffffffffffff1681526020018273ffffffffffffffffffffffffffffffffffffffff168152602001935050505060806040518083038186803b15801561168157600080fd5b505afa158015611695573d6000803e3d6000fd5b505050506040513d60808110156116ab57600080fd5b810190808051906020019092919080519060200190929190805190602001909291908051906020019092919050505050509150915081600d60009054906101000a900473ffffffffffffffffffffffffffffffffffffffff16829450945094505050909192565b60606040517f08c379a000000000000000000000000000000000000000000000000000000000815260040180806020018281038252602f8152602001806153a5602f913960400191505060405180910390fd5b60006117b882600160008673ffffffffffffffffffffffffffffffffffffffff1673ffffffffffffffffffffffffffffffffffffffff16815260200190815260200160002061299090919063ffffffff16565b905092915050565b6117db83838360405180602001604052806000815250611c09565b505050565b6000806117f78360026129aa90919063ffffffff16565b50905080915050919050565b6000611833826040518060600160405280602981526020016152b56029913960026129d69092919063ffffffff16565b9050919050565b606060098054600181600116156101000203166002900480601f0160208091040260200160405190810160405280929190818152602001828054600181600116156101000203166002900480156118d25780601f106118a7576101008083540402835291602001916118d2565b820191906000526020600020905b8154815290600101906020018083116118b557829003601f168201915b5050505050905090565b60008073ffffffffffffffffffffffffffffffffffffffff168273ffffffffffffffffffffffffffffffffffffffff161415611963576040517f08c379a000000000000000000000000000000000000000000000000000000000815260040180806020018281038252602a81526020018061528b602a913960400191505060405180910390fd5b6119aa600160008473ffffffffffffffffffffffffffffffffffffffff1673ffffffffffffffffffffffffffffffffffffffff1681526020019081526020016000206129f5565b9050919050565b606060078054600181600116156101000203166002900480601f016020809104026020016040519081016040528092919081815260200182805460018160011615610100020316600290048015611a495780601f10611a1e57610100808354040283529160200191611a49565b820191906000526020600020905b815481529060010190602001808311611a2c57829003601f168201915b5050505050905090565b611a5b612583565b73ffffffffffffffffffffffffffffffffffffffff168273ffffffffffffffffffffffffffffffffffffffff161415611afc576040517f08c379a00000000000000000000000000000000000000000000000000000000081526004018080602001828103825260198152602001807f4552433732313a20617070726f766520746f2063616c6c65720000000000000081525060200191505060405180910390fd5b8060056000611b09612583565b73ffffffffffffffffffffffffffffffffffffffff1673ffffffffffffffffffffffffffffffffffffffff16815260200190815260200160002060008473ffffffffffffffffffffffffffffffffffffffff1673ffffffffffffffffffffffffffffffffffffffff16815260200190815260200160002060006101000a81548160ff0219169083151502179055508173ffffffffffffffffffffffffffffffffffffffff16611bb6612583565b73ffffffffffffffffffffffffffffffffffffffff167f17307eab39ab6107e8899845ad3d59bd9653f200f220920489ca2b5937696c318360405180821515815260200191505060405180910390a35050565b611c1a611c14612583565b83612659565b611c6f576040517f08c379a00000000000000000000000000000000000000000000000000000000081526004018080602001828103825260318152602001806153d46031913960400191505060405180910390fd5b611c7b84848484612a0a565b50505050565b60606040517f08c379a000000000000000000000000000000000000000000000000000000000815260040180806020018281038252602f815260200180615405602f913960400191505060405180910390fd5b6060600a60009054906101000a900473ffffffffffffffffffffffffffffffffffffffff1673ffffffffffffffffffffffffffffffffffffffff163373ffffffffffffffffffffffffffffffffffffffff1614611d7c576040517f08c379a00000000000000000000000000000000000000000000000000000000081526004018080602001828103825260228152602001806151e16022913960400191505060405180910390fd5b611da7600c60009054906101000a900473ffffffffffffffffffffffffffffffffffffffff16612a7c565b1580611db95750611db785612ad6565b155b15611e0a5786868080601f016020809104026020016040519081016040528093929190818152602001838380828437600081840152601f19601f820116905080830192505050505050509050611e17565b611e148787612b82565b90505b979650505050505050565b6060611e2d82612566565b611e82576040517f08c379a000000000000000000000000000000000000000000000000000000000815260040180806020018281038252602f815260200180615355602f913960400191505060405180910390fd5b6060600860008481526020019081526020016000208054600181600116156101000203166002900480601f016020809104026020016040519081016040528092919081815260200182805460018160011615610100020316600290048015611f2b5780601f10611f0057610100808354040283529160200191611f2b565b820191906000526020600020905b815481529060010190602001808311611f0e57829003601f168201915b50505050509050600060098054600181600116156101000203166002900490501415611f5a5780915050612106565b600081511115612033576009816040516020018083805460018160011615610100020316600290048015611fc55780601f10611fa3576101008083540402835291820191611fc5565b820191906000526020600020905b815481529060010190602001808311611fb1575b505082805190602001908083835b60208310611ff65780518252602082019150602081019050602083039250611fd3565b6001836020036101000a03801982511681845116808217855250505050505090500192505050604051602081830303815290604052915050612106565b600961203e84613c6b565b604051602001808380546001816001161561010002031660029004801561209c5780601f1061207a57610100808354040283529182019161209c565b820191906000526020600020905b815481529060010190602001808311612088575b505082805190602001908083835b602083106120cd57805182526020820191506020810190506020830392506120aa565b6001836020036101000a038019825116818451168082178552505050505050905001925050506040516020818303038152906040529150505b919050565b6060878561211882612a7c565b61218a576040517f08c379a000000000000000000000000000000000000000000000000000000000815260040180806020018281038252601f8152602001807f5265646972656374416c6c3a206e6f7420616363657074656420746f6b656e0081525060200191505060405180910390fd5b61219381612ad6565b6121e8576040517f08c379a000000000000000000000000000000000000000000000000000000000815260040180806020018281038252602181526020018061515b6021913960400191505060405180910390fd5b600a60009054906101000a900473ffffffffffffffffffffffffffffffffffffffff1673ffffffffffffffffffffffffffffffffffffffff163373ffffffffffffffffffffffffffffffffffffffff161461228e576040517f08c379a00000000000000000000000000000000000000000000000000000000081526004018080602001828103825260228152602001806151e16022913960400191505060405180910390fd5b6122988989612b82565b92505050979650505050505050565b606087856122b482612a7c565b612326576040517f08c379a000000000000000000000000000000000000000000000000000000000815260040180806020018281038252601f8152602001807f5265646972656374416c6c3a206e6f7420616363657074656420746f6b656e0081525060200191505060405180910390fd5b61232f81612ad6565b612384576040517f08c379a000000000000000000000000000000000000000000000000000000000815260040180806020018281038252602181526020018061515b6021913960400191505060405180910390fd5b600a60009054906101000a900473ffffffffffffffffffffffffffffffffffffffff1673ffffffffffffffffffffffffffffffffffffffff163373ffffffffffffffffffffffffffffffffffffffff161461242a576040517f08c379a00000000000000000000000000000000000000000000000000000000081526004018080602001828103825260228152602001806151e16022913960400191505060405180910390fd5b6124348989612b82565b92505050979650505050505050565b6000600560008473ffffffffffffffffffffffffffffffffffffffff1673ffffffffffffffffffffffffffffffffffffffff16815260200190815260200160002060008373ffffffffffffffffffffffffffffffffffffffff1673ffffffffffffffffffffffffffffffffffffffff16815260200190815260200160002060009054906101000a900460ff16905092915050565b600d60009054906101000a900473ffffffffffffffffffffffffffffffffffffffff1681565b600061250f836000018360001b613db2565b905092915050565b6000612543846000018460001b8473ffffffffffffffffffffffffffffffffffffffff1660001b613e22565b90509392505050565b600061255e836000018360001b613efe565b905092915050565b600061257c82600261254c90919063ffffffff16565b9050919050565b600033905090565b816004600083815260200190815260200160002060006101000a81548173ffffffffffffffffffffffffffffffffffffffff021916908373ffffffffffffffffffffffffffffffffffffffff160217905550808273ffffffffffffffffffffffffffffffffffffffff166125fe83611803565b73ffffffffffffffffffffffffffffffffffffffff167f8c5be1e5ebec7d5bd14f71427d1e84f3dd0314c0f7b2291e5b200ac8c7c3b92560405160405180910390a45050565b600061265282600001613f21565b9050919050565b600061266482612566565b6126b9576040517f08c379a000000000000000000000000000000000000000000000000000000000815260040180806020018281038252602c815260200180615227602c913960400191505060405180910390fd5b60006126c483611803565b90508073ffffffffffffffffffffffffffffffffffffffff168473ffffffffffffffffffffffffffffffffffffffff16148061273357508373ffffffffffffffffffffffffffffffffffffffff1661271b846112b7565b73ffffffffffffffffffffffffffffffffffffffff16145b8061274457506127438185612443565b5b91505092915050565b8273ffffffffffffffffffffffffffffffffffffffff1661276d82611803565b73ffffffffffffffffffffffffffffffffffffffff16146127d9576040517f08c379a000000000000000000000000000000000000000000000000000000000815260040180806020018281038252602981526020018061532c6029913960400191505060405180910390fd5b600073ffffffffffffffffffffffffffffffffffffffff168273ffffffffffffffffffffffffffffffffffffffff16141561285f576040517f08c379a00000000000000000000000000000000000000000000000000000000081526004018080602001828103825260248152602001806152036024913960400191505060405180910390fd5b61286a838383613f32565b61287560008261258b565b6128c681600160008673ffffffffffffffffffffffffffffffffffffffff1673ffffffffffffffffffffffffffffffffffffffff168152602001908152602001600020613f4090919063ffffffff16565b5061291881600160008573ffffffffffffffffffffffffffffffffffffffff1673ffffffffffffffffffffffffffffffffffffffff1681526020019081526020016000206124fd90919063ffffffff16565b5061292f818360026125179092919063ffffffff16565b50808273ffffffffffffffffffffffffffffffffffffffff168473ffffffffffffffffffffffffffffffffffffffff167fddf252ad1be2c89b69c2b068fc378daa952ba7f163c4a11628f55a4df523b3ef60405160405180910390a4505050565b600061299f8360000183613f5a565b60001c905092915050565b6000806000806129bd8660000186613fdd565b915091508160001c8160001c9350935050509250929050565b60006129e9846000018460001b84614076565b60001c90509392505050565b6000612a038260000161416c565b9050919050565b612a1584848461274d565b612a218484848461417d565b612a76576040517f08c379a000000000000000000000000000000000000000000000000000000000815260040180806020018281038252603281526020018061517c6032913960400191505060405180910390fd5b50505050565b6000600c60009054906101000a900473ffffffffffffffffffffffffffffffffffffffff1673ffffffffffffffffffffffffffffffffffffffff168273ffffffffffffffffffffffffffffffffffffffff16149050919050565b60007fa9214cc96615e0085d3bb077758db69497dc2dce3b2b1e97bc93c3d18d83efd38273ffffffffffffffffffffffffffffffffffffffff16637730599e6040518163ffffffff1660e01b815260040160206040518083038186803b158015612b3f57600080fd5b505afa158015612b53573d6000803e3d6000fd5b505050506040513d6020811015612b6957600080fd5b8101908080519060200190929190505050149050919050565b60606000600b60009054906101000a900473ffffffffffffffffffffffffffffffffffffffff1673ffffffffffffffffffffffffffffffffffffffff1663e8e7e2d1600c60009054906101000a900473ffffffffffffffffffffffffffffffffffffffff16306040518363ffffffff1660e01b8152600401808373ffffffffffffffffffffffffffffffffffffffff1681526020018273ffffffffffffffffffffffffffffffffffffffff1681526020019250505060206040518083038186803b158015612c4f57600080fd5b505afa158015612c63573d6000803e3d6000fd5b505050506040513d6020811015612c7957600080fd5b810190808051906020019092919050505090506000600b60009054906101000a900473ffffffffffffffffffffffffffffffffffffffff1673ffffffffffffffffffffffffffffffffffffffff1663e6a1e888600c60009054906101000a900473ffffffffffffffffffffffffffffffffffffffff1630600d60009054906101000a900473ffffffffffffffffffffffffffffffffffffffff166040518463ffffffff1660e01b8152600401808473ffffffffffffffffffffffffffffffffffffffff1681526020018373ffffffffffffffffffffffffffffffffffffffff1681526020018273ffffffffffffffffffffffffffffffffffffffff168152602001935050505060806040518083038186803b158015612d9757600080fd5b505afa158015612dab573d6000803e3d6000fd5b505050506040513d6080811015612dc157600080fd5b81019080805190602001909291908051906020019092919080519060200190929190805190602001909291905050505050915050600081830190506000600b0b82600b0b146132c9576060600a60009054906101000a900473ffffffffffffffffffffffffffffffffffffffff1673ffffffffffffffffffffffffffffffffffffffff16638d62bb01600b60009054906101000a900473ffffffffffffffffffffffffffffffffffffffff166350209a6260e01b600c60009054906101000a900473ffffffffffffffffffffffffffffffffffffffff16600d60009054906101000a900473ffffffffffffffffffffffffffffffffffffffff1687600067ffffffffffffffff81118015612ed457600080fd5b506040519080825280601f01601f191660200182016040528015612f075781602001600182028036833780820191505090505b50604051602401808573ffffffffffffffffffffffffffffffffffffffff1681526020018473ffffffffffffffffffffffffffffffffffffffff16815260200183600b0b815260200180602001828103825283818151815260200191508051906020019080838360005b83811015612f8c578082015181840152602081019050612f71565b50505050905090810190601f168015612fb95780820380516001836020036101000a031916815260200191505b5095505050505050604051602081830303815290604052907bffffffffffffffffffffffffffffffffffffffffffffffffffffffff19166020820180517bffffffffffffffffffffffffffffffffffffffffffffffffffffffff83818316178352505050508a8a6040518563ffffffff1660e01b8152600401808573ffffffffffffffffffffffffffffffffffffffff1681526020018060200180602001838103835286818151815260200191508051906020019080838360005b8381101561308f578082015181840152602081019050613074565b50505050905090810190601f1680156130bc5780820380516001836020036101000a031916815260200191505b508381038252858582818152602001925080828437600081840152601f19601f8201169050808301925050509650505050505050600060405180830381600087803b15801561310a57600080fd5b505af115801561311e573d6000803e3d6000fd5b505050506040513d6000823e3d601f19601f82011682018060405250604081101561314857600080fd5b810190808051604051939291908464010000000082111561316857600080fd5b8382019150602082018581111561317e57600080fd5b825186600182028301116401000000008211171561319b57600080fd5b8083526020830192505050908051906020019080838360005b838110156131cf5780820151818401526020810190506131b4565b50505050905090810190601f1680156131fc5780820380516001836020036101000a031916815260200191505b506040526020018051604051939291908464010000000082111561321f57600080fd5b8382019150602082018581111561323557600080fd5b825186600182028301116401000000008211171561325257600080fd5b8083526020830192505050908051906020019080838360005b8381101561328657808201518184015260208101905061326b565b50505050905090810190601f1680156132b35780820380516001836020036101000a031916815260200191505b5060405250505050905080945050505050613c65565b6000600b0b81600b0b14156137aa576060600a60009054906101000a900473ffffffffffffffffffffffffffffffffffffffff1673ffffffffffffffffffffffffffffffffffffffff16638d62bb01600b60009054906101000a900473ffffffffffffffffffffffffffffffffffffffff1663b4b333c660e01b600c60009054906101000a900473ffffffffffffffffffffffffffffffffffffffff1630600d60009054906101000a900473ffffffffffffffffffffffffffffffffffffffff16600067ffffffffffffffff811180156133a257600080fd5b506040519080825280601f01601f1916602001820160405280156133d55781602001600182028036833780820191505090505b50604051602401808573ffffffffffffffffffffffffffffffffffffffff1681526020018473ffffffffffffffffffffffffffffffffffffffff1681526020018373ffffffffffffffffffffffffffffffffffffffff16815260200180602001828103825283818151815260200191508051906020019080838360005b8381101561346d578082015181840152602081019050613452565b50505050905090810190601f16801561349a5780820380516001836020036101000a031916815260200191505b5095505050505050604051602081830303815290604052907bffffffffffffffffffffffffffffffffffffffffffffffffffffffff19166020820180517bffffffffffffffffffffffffffffffffffffffffffffffffffffffff83818316178352505050508a8a6040518563ffffffff1660e01b8152600401808573ffffffffffffffffffffffffffffffffffffffff1681526020018060200180602001838103835286818151815260200191508051906020019080838360005b83811015613570578082015181840152602081019050613555565b50505050905090810190601f16801561359d5780820380516001836020036101000a031916815260200191505b508381038252858582818152602001925080828437600081840152601f19601f8201169050808301925050509650505050505050600060405180830381600087803b1580156135eb57600080fd5b505af11580156135ff573d6000803e3d6000fd5b505050506040513d6000823e3d601f19601f82011682018060405250604081101561362957600080fd5b810190808051604051939291908464010000000082111561364957600080fd5b8382019150602082018581111561365f57600080fd5b825186600182028301116401000000008211171561367c57600080fd5b8083526020830192505050908051906020019080838360005b838110156136b0578082015181840152602081019050613695565b50505050905090810190601f1680156136dd5780820380516001836020036101000a031916815260200191505b506040526020018051604051939291908464010000000082111561370057600080fd5b8382019150602082018581111561371657600080fd5b825186600182028301116401000000008211171561373357600080fd5b8083526020830192505050908051906020019080838360005b8381101561376757808201518184015260208101905061374c565b50505050905090810190601f1680156137945780820380516001836020036101000a031916815260200191505b5060405250505050905080945050505050613c65565b6060600a60009054906101000a900473ffffffffffffffffffffffffffffffffffffffff1673ffffffffffffffffffffffffffffffffffffffff16638d62bb01600b60009054906101000a900473ffffffffffffffffffffffffffffffffffffffff166362fc305e60e01b600c60009054906101000a900473ffffffffffffffffffffffffffffffffffffffff16600d60009054906101000a900473ffffffffffffffffffffffffffffffffffffffff1687600067ffffffffffffffff8111801561387457600080fd5b506040519080825280601f01601f1916602001820160405280156138a75781602001600182028036833780820191505090505b50604051602401808573ffffffffffffffffffffffffffffffffffffffff1681526020018473ffffffffffffffffffffffffffffffffffffffff16815260200183600b0b815260200180602001828103825283818151815260200191508051906020019080838360005b8381101561392c578082015181840152602081019050613911565b50505050905090810190601f1680156139595780820380516001836020036101000a031916815260200191505b5095505050505050604051602081830303815290604052907bffffffffffffffffffffffffffffffffffffffffffffffffffffffff19166020820180517bffffffffffffffffffffffffffffffffffffffffffffffffffffffff83818316178352505050508a8a6040518563ffffffff1660e01b8152600401808573ffffffffffffffffffffffffffffffffffffffff1681526020018060200180602001838103835286818151815260200191508051906020019080838360005b83811015613a2f578082015181840152602081019050613a14565b50505050905090810190601f168015613a5c5780820380516001836020036101000a031916815260200191505b508381038252858582818152602001925080828437600081840152601f19601f8201169050808301925050509650505050505050600060405180830381600087803b158015613aaa57600080fd5b505af1158015613abe573d6000803e3d6000fd5b505050506040513d6000823e3d601f19601f820116820180604052506040811015613ae857600080fd5b8101908080516040519392919084640100000000821115613b0857600080fd5b83820191506020820185811115613b1e57600080fd5b8251866001820283011164010000000082111715613b3b57600080fd5b8083526020830192505050908051906020019080838360005b83811015613b6f578082015181840152602081019050613b54565b50505050905090810190601f168015613b9c5780820380516001836020036101000a031916815260200191505b5060405260200180516040519392919084640100000000821115613bbf57600080fd5b83820191506020820185811115613bd557600080fd5b8251866001820283011164010000000082111715613bf257600080fd5b8083526020830192505050908051906020019080838360005b83811015613c26578082015181840152602081019050613c0b565b50505050905090810190601f168015613c535780820380516001836020036101000a031916815260200191505b50604052505050509050809450505050505b92915050565b60606000821415613cb3576040518060400160405280600181526020017f30000000000000000000000000000000000000000000000000000000000000008152509050613dad565b600082905060005b60008214613cdd578080600101915050600a8281613cd557fe5b049150613cbb565b60608167ffffffffffffffff81118015613cf657600080fd5b506040519080825280601f01601f191660200182016040528015613d295781602001600182028036833780820191505090505b50905060006001830390508593505b60008414613da557600a8481613d4a57fe5b0660300160f81b82828060019003935081518110613d6457fe5b60200101907effffffffffffffffffffffffffffffffffffffffffffffffffffffffffffff1916908160001a905350600a8481613d9d57fe5b049350613d38565b819450505050505b919050565b6000613dbe8383614396565b613e17578260000182908060018154018082558091505060019003906000526020600020016000909190919091505582600001805490508360010160008481526020019081526020016000208190555060019050613e1c565b600090505b92915050565b6000808460010160008581526020019081526020016000205490506000811415613ec957846000016040518060400160405280868152602001858152509080600181540180825580915050600190039060005260206000209060020201600090919091909150600082015181600001556020820151816001015550508460000180549050856001016000868152602001908152602001600020819055506001915050613ef7565b82856000016001830381548110613edc57fe5b90600052602060002090600202016001018190555060009150505b9392505050565b600080836001016000848152602001908152602001600020541415905092915050565b600081600001805490509050919050565b613f3b826143b9565b505050565b6000613f52836000018360001b614de7565b905092915050565b600081836000018054905011613fbb576040517f08c379a00000000000000000000000000000000000000000000000000000000081526004018080602001828103825260228152602001806151396022913960400191505060405180910390fd5b826000018281548110613fca57fe5b9060005260206000200154905092915050565b6000808284600001805490501161403f576040517f08c379a00000000000000000000000000000000000000000000000000000000081526004018080602001828103825260228152602001806152de6022913960400191505060405180910390fd5b600084600001848154811061405057fe5b906000526020600020906002020190508060000154816001015492509250509250929050565b6000808460010160008581526020019081526020016000205490506000811415839061413d576040517f08c379a00000000000000000000000000000000000000000000000000000000081526004018080602001828103825283818151815260200191508051906020019080838360005b838110156141025780820151818401526020810190506140e7565b50505050905090810190601f16801561412f5780820380516001836020036101000a031916815260200191505b509250505060405180910390fd5b5084600001600182038154811061415057fe5b9060005260206000209060020201600101549150509392505050565b600081600001805490509050919050565b600061419e8473ffffffffffffffffffffffffffffffffffffffff16614ecf565b6141ab576001905061438e565b606061431563150b7a0260e01b6141c0612583565b888787604051602401808573ffffffffffffffffffffffffffffffffffffffff1681526020018473ffffffffffffffffffffffffffffffffffffffff16815260200183815260200180602001828103825283818151815260200191508051906020019080838360005b83811015614244578082015181840152602081019050614229565b50505050905090810190601f1680156142715780820380516001836020036101000a031916815260200191505b5095505050505050604051602081830303815290604052907bffffffffffffffffffffffffffffffffffffffffffffffffffffffff19166020820180517bffffffffffffffffffffffffffffffffffffffffffffffffffffffff838183161783525050505060405180606001604052806032815260200161517c603291398773ffffffffffffffffffffffffffffffffffffffff16614f1a9092919063ffffffff16565b9050600081806020019051602081101561432e57600080fd5b8101908080519060200190929190505050905063150b7a0260e01b7bffffffffffffffffffffffffffffffffffffffffffffffffffffffff1916817bffffffffffffffffffffffffffffffffffffffffffffffffffffffff191614925050505b949350505050565b600080836001016000848152602001908152602001600020541415905092915050565b600073ffffffffffffffffffffffffffffffffffffffff168173ffffffffffffffffffffffffffffffffffffffff16141561445c576040517f08c379a000000000000000000000000000000000000000000000000000000000815260040180806020018281038252601c8152602001807f4e6577207265636569766572206973207a65726f20616464726573730000000081525060200191505060405180910390fd5b600d60009054906101000a900473ffffffffffffffffffffffffffffffffffffffff1673ffffffffffffffffffffffffffffffffffffffff168173ffffffffffffffffffffffffffffffffffffffff1614156144b757614de4565b600a60009054906101000a900473ffffffffffffffffffffffffffffffffffffffff1673ffffffffffffffffffffffffffffffffffffffff166361d164d3600b60009054906101000a900473ffffffffffffffffffffffffffffffffffffffff1663b4b333c660e01b600c60009054906101000a900473ffffffffffffffffffffffffffffffffffffffff1630600d60009054906101000a900473ffffffffffffffffffffffffffffffffffffffff16600067ffffffffffffffff8111801561457f57600080fd5b506040519080825280601f01601f1916602001820160405280156145b25781602001600182028036833780820191505090505b50604051602401808573ffffffffffffffffffffffffffffffffffffffff1681526020018473ffffffffffffffffffffffffffffffffffffffff1681526020018373ffffffffffffffffffffffffffffffffffffffff16815260200180602001828103825283818151815260200191508051906020019080838360005b8381101561464a57808201518184015260208101905061462f565b50505050905090810190601f1680156146775780820380516001836020036101000a031916815260200191505b5095505050505050604051602081830303815290604052907bffffffffffffffffffffffffffffffffffffffffffffffffffffffff19166020820180517bffffffffffffffffffffffffffffffffffffffffffffffffffffffff83818316178352505050506040518363ffffffff1660e01b8152600401808373ffffffffffffffffffffffffffffffffffffffff16815260200180602001828103825283818151815260200191508051906020019080838360005b8381101561474757808201518184015260208101905061472c565b50505050905090810190601f1680156147745780820380516001836020036101000a031916815260200191505b509350505050600060405180830381600087803b15801561479457600080fd5b505af11580156147a8573d6000803e3d6000fd5b505050506040513d6000823e3d601f19601f8201168201806040525060208110156147d257600080fd5b81019080805160405193929190846401000000008211156147f257600080fd5b8382019150602082018581111561480857600080fd5b825186600182028301116401000000008211171561482557600080fd5b8083526020830192505050908051906020019080838360005b8381101561485957808201518184015260208101905061483e565b50505050905090810190601f1680156148865780820380516001836020036101000a031916815260200191505b5060405250505050600a60009054906101000a900473ffffffffffffffffffffffffffffffffffffffff1673ffffffffffffffffffffffffffffffffffffffff166361d164d3600b60009054906101000a900473ffffffffffffffffffffffffffffffffffffffff166362fc305e60e01b600c60009054906101000a900473ffffffffffffffffffffffffffffffffffffffff1685600b60009054906101000a900473ffffffffffffffffffffffffffffffffffffffff1673ffffffffffffffffffffffffffffffffffffffff1663e8e7e2d1600c60009054906101000a900473ffffffffffffffffffffffffffffffffffffffff16306040518363ffffffff1660e01b8152600401808373ffffffffffffffffffffffffffffffffffffffff1681526020018273ffffffffffffffffffffffffffffffffffffffff1681526020019250505060206040518083038186803b1580156149e457600080fd5b505afa1580156149f8573d6000803e3d6000fd5b505050506040513d6020811015614a0e57600080fd5b8101908080519060200190929190505050600067ffffffffffffffff81118015614a3757600080fd5b506040519080825280601f01601f191660200182016040528015614a6a5781602001600182028036833780820191505090505b50604051602401808573ffffffffffffffffffffffffffffffffffffffff1681526020018473ffffffffffffffffffffffffffffffffffffffff16815260200183600b0b815260200180602001828103825283818151815260200191508051906020019080838360005b83811015614aef578082015181840152602081019050614ad4565b50505050905090810190601f168015614b1c5780820380516001836020036101000a031916815260200191505b5095505050505050604051602081830303815290604052907bffffffffffffffffffffffffffffffffffffffffffffffffffffffff19166020820180517bffffffffffffffffffffffffffffffffffffffffffffffffffffffff83818316178352505050506040518363ffffffff1660e01b8152600401808373ffffffffffffffffffffffffffffffffffffffff16815260200180602001828103825283818151815260200191508051906020019080838360005b83811015614bec578082015181840152602081019050614bd1565b50505050905090810190601f168015614c195780820380516001836020036101000a031916815260200191505b509350505050600060405180830381600087803b158015614c3957600080fd5b505af1158015614c4d573d6000803e3d6000fd5b505050506040513d6000823e3d601f19601f820116820180604052506020811015614c7757600080fd5b8101908080516040519392919084640100000000821115614c9757600080fd5b83820191506020820185811115614cad57600080fd5b8251866001820283011164010000000082111715614cca57600080fd5b8083526020830192505050908051906020019080838360005b83811015614cfe578082015181840152602081019050614ce3565b50505050905090810190601f168015614d2b5780820380516001836020036101000a031916815260200191505b506040525050505080600d60006101000a81548173ffffffffffffffffffffffffffffffffffffffff021916908373ffffffffffffffffffffffffffffffffffffffff1602179055507f7dfb1d59db37a3fd2e15e796c189dcab714cdbb18650d68a1de58f8fa60718c9600d60009054906101000a900473ffffffffffffffffffffffffffffffffffffffff16604051808273ffffffffffffffffffffffffffffffffffffffff16815260200191505060405180910390a15b50565b60008083600101600084815260200190815260200160002054905060008114614ec35760006001820390506000600186600001805490500390506000866000018281548110614e3257fe5b9060005260206000200154905080876000018481548110614e4f57fe5b9060005260206000200181905550600183018760010160008381526020019081526020016000208190555086600001805480614e8757fe5b60019003818190600052602060002001600090559055866001016000878152602001908152602001600020600090556001945050505050614ec9565b60009150505b92915050565b60008060007fc5d2460186f7233c927e7db2dcc703c0e500b653ca82273b7bfad8045d85a47060001b9050833f9150808214158015614f1157506000801b8214155b92505050919050565b6060614f298484600085614f32565b90509392505050565b6060614f3d85614ecf565b614faf576040517f08c379a000000000000000000000000000000000000000000000000000000000815260040180806020018281038252601d8152602001807f416464726573733a2063616c6c20746f206e6f6e2d636f6e747261637400000081525060200191505060405180910390fd5b600060608673ffffffffffffffffffffffffffffffffffffffff1685876040518082805190602001908083835b60208310614fff5780518252602082019150602081019050602083039250614fdc565b6001836020036101000a03801982511681845116808217855250505050505090500191505060006040518083038185875af1925050503d8060008114615061576040519150601f19603f3d011682016040523d82523d6000602084013e615066565b606091505b5091509150811561507b578092505050615130565b60008151111561508e5780518082602001fd5b836040517f08c379a00000000000000000000000000000000000000000000000000000000081526004018080602001828103825283818151815260200191508051906020019080838360005b838110156150f55780820151818401526020810190506150da565b50505050905090810190601f1680156151225780820380516001836020036101000a031916815260200191505b509250505060405180910390fd5b94935050505056fe456e756d657261626c655365743a20696e646578206f7574206f6620626f756e64735265646972656374416c6c3a206f6e6c7920434641763120737570706f727465644552433732313a207472616e7366657220746f206e6f6e20455243373231526563656976657220696d706c656d656e746572556e737570706f727465642063616c6c6261636b202d20204265666f72652041677265656d656e74205465726d696e617465645265646972656374416c6c3a20737570706f7274206f6e6c79206f6e6520686f73744552433732313a207472616e7366657220746f20746865207a65726f20616464726573734552433732313a206f70657261746f7220717565727920666f72206e6f6e6578697374656e7420746f6b656e4552433732313a20617070726f76652063616c6c6572206973206e6f74206f776e6572206e6f7220617070726f76656420666f7220616c6c4552433732313a2062616c616e636520717565727920666f7220746865207a65726f20616464726573734552433732313a206f776e657220717565727920666f72206e6f6e6578697374656e7420746f6b656e456e756d657261626c654d61703a20696e646578206f7574206f6620626f756e64734552433732313a20617070726f76656420717565727920666f72206e6f6e6578697374656e7420746f6b656e4552433732313a207472616e73666572206f6620746f6b656e2074686174206973206e6f74206f776e4552433732314d657461646174613a2055524920717565727920666f72206e6f6e6578697374656e7420746f6b656e4552433732313a20617070726f76616c20746f2063757272656e74206f776e6572556e737570706f727465642063616c6c6261636b202d204265666f72652041677265656d656e7420757064617465644552433732313a207472616e736665722063616c6c6572206973206e6f74206f776e6572206e6f7220617070726f766564556e737570706f727465642063616c6c6261636b202d204265666f72652041677265656d656e742043726561746564a26469706673582212205bbfa07cff81d53a04e5244ff987c60d4d52c17d8ca446a8cea0f6f4f95a6e7b64736f6c63430007010033",
  "immutableReferences": {},
  "source": "// SPDX-License-Identifier: MIT\npragma solidity ^0.7.0;\n\nimport \"@openzeppelin/contracts/token/ERC721/ERC721.sol\";\nimport \"./RedirectAll.sol\";\n\ncontract TradeableCashflow is ERC721, RedirectAll {\n  event NewFace(\n    address indexed owner,\n    uint256 indexed tokenId,\n    string tokenURI\n  );\n\n  // uint private once = 0;\n  // address owner;\n\n  constructor(\n    address _owner,\n    string memory _name,\n    string memory _symbol,\n    ISuperfluid _host,\n    IConstantFlowAgreementV1 _cfa,\n    ISuperToken _acceptedToken\n  ) ERC721(_name, _symbol) RedirectAll(_host, _cfa, _acceptedToken, _owner) {\n    // owner = _owner;\n    _mint(_owner, 1);\n  }\n\n  // ! TODO: hack. The factory wouldn't deploy. I suspect it is due to the gas block limit\n  // function mint() external {\n  //   require(once == 0, \"not allowed\");\n  //   _mint(owner, 1);\n  // }\n\n  // before mint, burn, transfer, this gets called\n  // i.e. the receiver of the stream changes\n  // the receiver of the stream is always the LENDER\n  // albeit the NFT being with the borrower.\n  // When the NFT is transfered back to the owner,\n  // the receiver is set to address(0)\n  function _beforeTokenTransfer(\n    address, /*from*/\n    address to,\n    uint256 /*tokenId*/\n  ) internal override {\n    _changeReceiver(to);\n  }\n}\n",
  "sourcePath": "/Users/shredder/git/superfluid/contracts/contracts/StreamableNFT/TradeableCashflow.sol",
  "compiler": {
    "name": "solc",
    "version": "0.7.1+commit.f4a555be.Emscripten.clang"
  },
  "schemaVersion": "3.3.2",
  "updatedAt": "2020-11-13T12:15:53.778Z",
  "networkType": "ethereum",
  "devdoc": {
    "kind": "dev",
    "methods": {
      "approve(address,uint256)": {
        "details": "See {IERC721-approve}."
      },
      "balanceOf(address)": {
        "details": "See {IERC721-balanceOf}."
      },
      "baseURI()": {
        "details": "Returns the base URI set via {_setBaseURI}. This will be automatically added as a prefix in {tokenURI} to each token's URI, or to the token ID if no specific URI is set for that token ID."
      },
      "getApproved(uint256)": {
        "details": "See {IERC721-getApproved}."
      },
      "isApprovedForAll(address,address)": {
        "details": "See {IERC721-isApprovedForAll}."
      },
      "name()": {
        "details": "See {IERC721Metadata-name}."
      },
      "ownerOf(uint256)": {
        "details": "See {IERC721-ownerOf}."
      },
      "safeTransferFrom(address,address,uint256)": {
        "details": "See {IERC721-safeTransferFrom}."
      },
      "safeTransferFrom(address,address,uint256,bytes)": {
        "details": "See {IERC721-safeTransferFrom}."
      },
      "setApprovalForAll(address,bool)": {
        "details": "See {IERC721-setApprovalForAll}."
      },
      "supportsInterface(bytes4)": {
        "details": "See {IERC165-supportsInterface}. Time complexity O(1), guaranteed to always use less than 30 000 gas."
      },
      "symbol()": {
        "details": "See {IERC721Metadata-symbol}."
      },
      "tokenByIndex(uint256)": {
        "details": "See {IERC721Enumerable-tokenByIndex}."
      },
      "tokenOfOwnerByIndex(address,uint256)": {
        "details": "See {IERC721Enumerable-tokenOfOwnerByIndex}."
      },
      "tokenURI(uint256)": {
        "details": "See {IERC721Metadata-tokenURI}."
      },
      "totalSupply()": {
        "details": "See {IERC721Enumerable-totalSupply}."
      },
      "transferFrom(address,address,uint256)": {
        "details": "See {IERC721-transferFrom}."
      }
    },
    "version": 1
  },
  "userdoc": {
    "kind": "user",
    "methods": {},
    "version": 1
  }
}